13472017B98877806RADIO TAXI METROPOLITANO DE VALENCIA,SLUT963982549JUAN JIMENEZ                            3470000000000  0000000000000000000163 000000210478837000000000 000000000000000                                                                                                                                                                                                                                                                                                                           
23472017B9887780604531974P         MORENO LACORT, EMILIO                   D46   B 000000000438815  000000000000000 0000000000000000000 000000000083957 000000000000000 000000000111007 000000000000000 000000000121260 000000000000000 000000000122591 000000000000000                     000000000000000                                                                                                                                                                                                         
23472017B9887780604551690J         MARTINEZ MARTINEZ, JOSE                 D46   B 000000000384878  000000000000000 0000000000000000000 000000000074578 000000000000000 000000000101297 000000000000000 000000000103565 000000000000000 000000000105438 000000000000000                     000000000000000                                                                                                                                                                                                         
23472017B9887780604559326J         MARTINEZ MARTINEZ, JESUS                D46   B 000000001555962  000000000000000 0000000000000000000 000000000278138 000000000000000 000000000424389 000000000000000 000000000424751 000000000000000 000000000428684 000000000000000                     000000000000000                                                                                                                                                                                                         
23472017B9887780604574925H         GRANERO LOMAS, ANGUSTIAS                D46   B 000000000407960  000000000000000 0000000000000000000 000000000081718 000000000000000 000000000110038 000000000000000 000000000106409 000000000000000 000000000109795 000000000000000                     000000000000000                                                                                                                                                                                                         
23472017B9887780605099939B         VERGARA CONTRERAS, JUAN                 D46   B 000000000394891  000000000000000 0000000000000000000 000000000078845 000000000000000 000000000108463 000000000000000 000000000103776 000000000000000 000000000103807 000000000000000                     000000000000000                                                                                                                                                                                                         
23472017B9887780605118531L         PARDO GARCIA, MARIA                     D46   B 000000000959826  000000000000000 0000000000000000000 000000000194435 000000000000000 000000000264276 000000000000000 000000000249272 000000000000000 000000000251843 000000000000000                     000000000000000                                                                                                                                                                                                         
23472017B9887780618437639B         CIRUJEDA CIRUJEDA, ANTONIO              D46   B 000000000407626  000000000000000 0000000000000000000 000000000079176 000000000000000 000000000104472 000000000000000 000000000111611 000000000000000 000000000112367 000000000000000                     000000000000000                                                                                                                                                                                                         
23472017B9887780619455039Y         AUÑON VELASCO,HILARIO                   D46   B 000000000310389  000000000000000 0000000000000000000 000000000058098 000000000000000 000000000087888 000000000000000 000000000081899 000000000000000 000000000082504 000000000000000                     000000000000000                                                                                                                                                                                                         
23472017B9887780619463533J         CAMPOS ANAYA, MARI CARMEN               D46   B 000000000400334  000000000000000 0000000000000000000 000000000082081 000000000000000 000000000104139 000000000000000 000000000108676 000000000000000 000000000105438 000000000000000                     000000000000000                                                                                                                                                                                                         
23472017B9887780619504298E         GIMENO NAVARRO, JOSE LUIS               D46   B 000000000430099  000000000000000 0000000000000000000 000000000084138 000000000000000 000000000116297 000000000000000 000000000116179 000000000000000 000000000113485 000000000000000                     000000000000000                                                                                                                                                                                                         
23472017B9887780619523036S         ELENA IZQUIERDO SOLER                   D46   B 000000000388156  000000000000000 0000000000000000000 000000000127105 000000000000000 000000000113546 000000000000000 000000000050725 000000000000000 000000000096780 000000000000000                     000000000000000                                                                                                                                                                                                         
23472017B9887780619639620N         FOS SENENT. M.A.  ROSAS 2               D46   B 000000000365442  000000000000000 0000000000000000000 000000000081839 000000000000000 000000000104204 000000000000000 000000000114930 000000000000000 000000000064469 000000000000000                     000000000000000                                                                                                                                                                                                         
23472017B9887780619889426S         MARTINEZ PARDO, GERARDO                 D46   B 000000000303917  000000000000000 0000000000000000000 000000000063785 000000000000000 000000000087587 000000000000000 000000000074488 000000000000000 000000000078057 000000000000000                     000000000000000                                                                                                                                                                                                         
23472017B9887780619898826P         PARDO GARCIA, JUAN                      D46   B 000000001937076  000000000000000 0000000000000000000 000000000380217 000000000000000 000000000515698 000000000000000 000000000527764 000000000000000 000000000513397 000000000000000                     000000000000000                                                                                                                                                                                                         
23472017B9887780620372213D         PARDO ALFONSO, CARMELO                  D46   B 000000001916988  000000000000000 0000000000000000000 000000000384725 000000000000000 000000000514519 000000000000000 000000000505982 000000000000000 000000000511762 000000000000000                     000000000000000                                                                                                                                                                                                         
23472017B9887780621168402F         ANDRES GARCIA, FRANCISCO                D46   B 000000000398279  000000000000000 0000000000000000000 000000000076485 000000000000000 000000000101930 000000000000000 000000000110311 000000000000000 000000000109553 000000000000000                     000000000000000                                                                                                                                                                                                         
23472017B9887780622525216M         JIMENEZ CRUZ, ANTONIO                   D46   B 000000000368281  000000000000000 0000000000000000000 000000000083676 000000000000000 000000000109977 000000000000000 000000000101960 000000000000000 000000000072668 000000000000000                     000000000000000                                                                                                                                                                                                         
23472017B9887780622531401A         TAMARIT BAYONA, LUIS JAVIER             D46   B 000000000311692  000000000000000 0000000000000000000 000000000063786 000000000000000 000000000086075 000000000000000 000000000082443 000000000000000 000000000079388 000000000000000                     000000000000000                                                                                                                                                                                                         
23472017B9887780622532252A         ARIAS LAGUNA, JULIA                     D46   B 000000000409377  000000000000000 0000000000000000000 000000000080175 000000000000000 000000000106498 000000000000000 000000000110701 000000000000000 000000000112003 000000000000000                     000000000000000                                                                                                                                                                                                         
23472017B9887780622663877E         ROMERO ROMERO, FERNANDO                 D46   B 000000000402483  000000000000000 0000000000000000000 000000000081778 000000000000000 000000000105924 000000000000000 000000000107285 000000000000000 000000000107496 000000000000000                     000000000000000                                                                                                                                                                                                         
23472017B9887780622683755M         CHULIA OLMOS, ENRIQUE                   D46   B 000000001030435  000000000000000 0000000000000000000 000000000191865 000000000000000 000000000261555 000000000000000 000000000282359 000000000000000 000000000294656 000000000000000                     000000000000000                                                                                                                                                                                                         
23472017B9887780626753680B         MARCHESE ALVAREZ, OLGA MONICA           D46   B 000000000426228  000000000000000 0000000000000000000 000000000082714 000000000000000 000000000112366 000000000000000 000000000114424 000000000000000 000000000116724 000000000000000                     000000000000000                                                                                                                                                                                                         
23472017B9887780629209505B         GUERRA BOUBECHTOULA, ABDELTIF           D46   B 000000000592224  000000000000000 0000000000000000000 000000000116529 000000000000000 000000000153906 000000000000000 000000000161076 000000000000000 000000000160713 000000000000000                     000000000000000                                                                                                                                                                                                         
23472017B9887780633463496Z         REPISO GARCIA, MANUEL                   D46   B 000000000352179  000000000000000 0000000000000000000 000000000055830 000000000000000 000000000072130 000000000000000 000000000111549 000000000000000 000000000112670 000000000000000                     000000000000000                                                                                                                                                                                                         
23472017B9887780644531320P         GUERRA DE LA LUNA, OMAR                 D46   B 000000000301496  000000000000000 0000000000000000000 000000000057615 000000000000000 000000000079872 000000000000000 000000000081415 000000000000000 000000000082594 000000000000000                     000000000000000                                                                                                                                                                                                         
23472017B9887780644799763H         GEMA ALEJANDRA GARCIA FONTESTAD         D46   B 000000000510294  000000000000000 0000000000000000000 000000000165178 000000000000000 000000000113025 000000000000000 000000000078861 000000000000000 000000000153230 000000000000000                     000000000000000                                                                                                                                                                                                         
23472017B9887780653052583R         PORTER OCAÑA, VICENTE JAVIER            D46   B 000000000340328  000000000000000 0000000000000000000 000000000082142 000000000000000 000000000082879 000000000000000 000000000069920 000000000000000 000000000105387 000000000000000                     000000000000000                                                                                                                                                                                                         
23472017B9887780673255952D         ESCOBEDO VILARIÑO, CARMELO              D46   B 000000000424445  000000000000000 0000000000000000000 000000000079539 000000000000000 000000000112064 000000000000000 000000000117994 000000000000000 000000000114848 000000000000000                     000000000000000                                                                                                                                                                                                         
23472017B9887780673751639T         ALONSO GIMENO, JUAN                     D46   B 000000000458651  000000000000000 0000000000000000000 000000000085407 000000000000000 000000000116633 000000000000000 000000000115060 000000000000000 000000000141551 000000000000000                     000000000000000                                                                                                                                                                                                         
23472017B98877806A28281368         RADIO POPULAR.S.A                       D46   B 000000000761014  000000000000000 0000000000000000000 000000000192840 000000000000000 000000000192020 000000000000000 000000000158504 000000000000000 000000000217650 000000000000000                     000000000000000                                                                                                                                                                                                         
23472017B98877806A28472819         FUJITSU SERVICES, S. A. - ALMACEN MA    D46   B 000000000977795  000000000000000 0000000000000000000 000000000433087 000000000000000 000000000307751 000000000000000 000000000216848 000000000000000 000000000020109 000000000000000                     000000000000000                                                                                                                                                                                                         
23472017B98877806A46112041         ETRA I + D, S. A.                       D46   B 000000000465495  000000000000000 0000000000000000000 000000000072625 000000000000000 000000000160245 000000000000000 000000000090465 000000000000000 000000000142160 000000000000000                     000000000000000                                                                                                                                                                                                         
23472017B98877806A46135331         AUTOVAL. S.A.                           D46   B 000000001600790  000000000000000 0000000000000000000 000000000466705 000000000000000 000000000489802 000000000000000 000000000425808 000000000000000 000000000218475 000000000000000                     000000000000000                                                                                                                                                                                                         
23472017B98877806A46229290         EDIT. PRENSA VALENCIANA, S. A.          D46   B 000000003069279  000000000000000 0000000000000000000 000000000866310 000000000000000 000000000800676 000000000000000 000000000538431 000000000000000 000000000863862 000000000000000                     000000000000000                                                                                                                                                                                                         
23472017B98877806A46421251         RAFAEL ALMENAR, S. A                    D46   B 000000000446823  000000000000000 0000000000000000000 000000000122110 000000000000000 000000000084521 000000000000000 000000000116402 000000000000000 000000000123790 000000000000000                     000000000000000                                                                                                                                                                                                         
23472017B98877806A46656799         LEVANTE WAGEN. S.A. - DPTO. ADMINISTRACID46   B 000000003539161  000000000000000 0000000000000000000 000000000862260 000000000000000 000000000834719 000000000000000 000000000933500 000000000000000 000000000908682 000000000000000                     000000000000000                                                                                                                                                                                                         
23472017B98877806A58511882         NH LAS ARTES - NH HOTELES ESPAÑA, S. A.-D28   B 000000000981560  000000000000000 0000000000000000000 000000000271845 000000000000000 000000000216837 000000000000000 000000000252913 000000000000000 000000000239965 000000000000000                     000000000000000                                                                                                                                                                                                         
23472017B98877806A79022299         EULEN, SERVICIOS                        D46   B 000000000776517  000000000000000 0000000000000000000 000000000138010 000000000000000 000000000122266 000000000000000 000000000261841 000000000000000 000000000254400 000000000000000                     000000000000000                                                                                                                                                                                                         
23472017B98877806A82018474         TELEFONICA DE ESPAÑA, S.A.U             D28   B 000000001146059  000000000000000 0000000000000000000 000000000285915 000000000000000 000000000268470 000000000000000 000000000303801 000000000000000 000000000287873 000000000000000                     000000000000000                                                                                                                                                                                                         
23472017B98877806A84818558         CORPORACION RADIO TELEVISION ESPAÑOLA, SD28   B 000000001114992  000000000000000 0000000000000000000 000000000383547 000000000000000 000000000312746 000000000000000 000000000196519 000000000000000 000000000222180 000000000000000                     000000000000000                                                                                                                                                                                                         
23472017B98877806A86868114         RENFE MERCANCIAS SME, S. A - DP 150000  D28   B 000000001072774  000000000000000 0000000000000000000 000000000000000 000000000000000 000000000268810 000000000000000 000000000344470 000000000000000 000000000459494 000000000000000                     000000000000000                                                                                                                                                                                                         
23472017B98877806A86868189         RENFE VIAJEROS SME, S. A. - GERENCIA SERD28   B 000000007984678  000000000000000 0000000000000000000 000000000311888 000000000000000 000000000172220 000000000000000 000000003463287 000000000000000 000000004037283 000000000000000                     000000000000000                                                                                                                                                                                                         
23472017B98877806A96793872         CIA VALENCIANA RADIO TAXI, SAU          D46   B 000000029042852  000000000000000 0000000000000000000 000000022008532 000000000000000 000000008396425 000000000000000N000000001362105 000000000000000 000000000000000 000000000000000                     000000000000000                                                                                                                                                                                                         
23472017B98877806B28016970         SDAD ESPAÑOLA RADIODIFUSION, S. L.      D46   B 000000000842365  000000000000000 0000000000000000000 000000000201806 000000000000000 000000000273221 000000000000000 000000000150908 000000000000000 000000000216430 000000000000000                     000000000000000                                                                                                                                                                                                         
23472017B98877806B46041729         MANUFACTURAS CEYLAN, S.L.               D46   B 000000000346477  000000000000000 0000000000000000000 000000000075139 000000000000000 000000000104574 000000000000000 000000000100150 000000000000000 000000000066614 000000000000000                     000000000000000                                                                                                                                                                                                         
23472017B98877806B46160479         MERCAMOTO, S. L. U.                     D46   B 000000000451667  000000000000000 0000000000000000000 000000000088255 000000000000000 000000000098646 000000000000000 000000000127856 000000000000000 000000000136910 000000000000000                     000000000000000                                                                                                                                                                                                         
23472017B98877806B85908093         ATOS IT SOLUTIONS AND SERVICES IBERIA, SD28   B 000000000316022  000000000000000 0000000000000000000 000000000135589 000000000000000 000000000086130 000000000000000 000000000032849 000000000000000 000000000061454 000000000000000                     000000000000000                                                                                                                                                                                                         
23472017B98877806B86788882         BAVIERA STEAM SYSTEMS, S. L.            D28   B 000000000367522  000000000000000 0000000000000000000 000000000114190 000000000000000 000000000087357 000000000000000 000000000070865 000000000000000 000000000095110 000000000000000                     000000000000000                                                                                                                                                                                                         
23472017B98877806B96336482         ESPORTINAT, S.L.  PISCINA ORRIOLS       D46   B 000000000486257  000000000000000 0000000000000000000 000000000155935 000000000000000 000000000123621 000000000000000 000000000079551 000000000000000 000000000127150 000000000000000                     000000000000000                                                                                                                                                                                                         
23472017B98877806B97666879         FORUM TEATRE I EDUCACIÓ, S. L.          D46   B 000000000530345  000000000000000 0000000000000000000 000000000180239 000000000000000 000000000108720 000000000000000 000000000089218 000000000000000 000000000152168 000000000000000                     000000000000000                                                                                                                                                                                                         
23472017B98877806B98250855         PRIME TV VALENCIANA, S.L.U.             D46   B 000000000423556  000000000000000 0000000000000000000 000000000146560 000000000000000 000000000077676 000000000000000 000000000081370 000000000000000 000000000117950 000000000000000                     000000000000000                                                                                                                                                                                                         
23472017B98877806B98666167         PROTESIS DENTAL APLICADA, S.L.          D46   B 000000000731087  000000000000000 0000000000000000000 000000000219140 000000000000000 000000000194212 000000000000000 000000000129710 000000000000000 000000000188025 000000000000000                     000000000000000                                                                                                                                                                                                         
23472017B98877806E98154107         CID Y SERRA NOTARIOS, C. B.             D46   B 000000000929388  000000000000000 0000000000000000000 000000000214739 000000000000000 000000000256873 000000000000000 000000000230774 000000000000000 000000000227002 000000000000000                     000000000000000                                                                                                                                                                                                         
23472017B98877806E98849219         CORBI PIQUER, C. B.                     D46   B 000000000621185  000000000000000 0000000000000000000 000000000153850 000000000000000 000000000151362 000000000000000 000000000165313 000000000000000 000000000150660 000000000000000                     000000000000000                                                                                                                                                                                                         
23472017B98877806F12047163         RADIO TAXI CASTELLON. COOP. V.          D12   B 000000000909026  000000000000000 0000000000000000000 000000000270161 000000000000000 000000000218765 000000000000000 000000000215400 000000000000000 000000000204700 000000000000000                     000000000000000                                                                                                                                                                                                         
23472017B98877806F46221503         COOPERATIVA VALENCIANA LIMITADA TELE TAXD46   B 000000002040383  000000000000000 0000000000000000000 000000000030250 000000000000000 000000000000000 000000000000000 000000000008226 000000000000000 000000002001907 000000000000000                     000000000000000                                                                                                                                                                                                         
23472017B98877806G43941442         ACTIVA MUTUA 2008  .- A/A. STA. AURORA  D46   B 000000005975082  000000000000000 0000000000000000000 000000001323305 000000000000000 000000001674575 000000000000000 000000001022955 000000000000000 000000001954247 000000000000000                     000000000000000                                                                                                                                                                                                         
23472017B98877806G78085149         FSP-UGT-PV                              D46   B 000000002273872  000000000000000 0000000000000000000 000000000540973 000000000000000 000000000641416 000000000000000 000000000443565 000000000000000 000000000647918 000000000000000                     000000000000000                                                                                                                                                                                                         
23472017B98877806G98406002         LAS NAVES INNDEA VALENCIA               D46   B 000000000431036  000000000000000 0000000000000000000 000000000105126 000000000000000 000000000144744 000000000000000 000000000053636 000000000000000 000000000127530 000000000000000                     000000000000000                                                                                                                                                                                                         
23472017B98877806Q2866001G         CRUZ ROJA ESPAÑOLA .- DPTO CAPTACION    D46   B 000000000922346  000000000000000 0000000000000000000 000000000247067 000000000000000 000000000269768 000000000000000 000000000149376 000000000000000 000000000256135 000000000000000                     000000000000000                                                                                                                                                                                                         
23472017B98877806Q4601065H         CONSORCIO HOSPITAL GENERAL UNIVERSITARIOD46   B 000000000987331  000000000000000 0000000000000000000 000000000261972 000000000000000 000000000289055 000000000000000 000000000165793 000000000000000 000000000270511 000000000000000                     000000000000000                                                                                                                                                                                                         
23472017B98877806Q4601414H         CORPORACIÓ VALENCIANA DE MITJANS DE COMUD46   B 000000000397561  000000000000000 0000000000000000000 000000000017425 000000000000000 000000000112711 000000000000000 000000000104970 000000000000000 000000000162455 000000000000000                     000000000000000                                                                                                                                                                                                         
23472017B98877806Q4618001D         UNIVERSITAT DE VALENCIA / SERVICIO DE PUD46   B 000000001082497  000000000000000 0000000000000000000 000000000218786 000000000000000 000000000272543 000000000000000 000000000221514 000000000000000 000000000369654 000000000000000                     000000000000000                                                                                                                                                                                                         
23472017B98877806Q4618002B         RESTAURACION BELLAS ARTES Y DEPARTAMENTOD46   B 000000000885268  000000000000000 0000000000000000000 000000000182311 000000000000000 000000000163044 000000000000000 000000000168302 000000000000000 000000000371611 000000000000000                     000000000000000                                                                                                                                                                                                         
23472017B98877806Q4673004J         FERIA MUESTRARIO INTERNACIONAL DE VALEN D46   B 000000001036961  000000000000000 0000000000000000000 000000000241103 000000000000000 000000000198438 000000000000000 000000000359467 000000000000000 000000000237953 000000000000000                     000000000000000                                                                                                                                                                                                         
23472017B98877806Q9655770G         AGENCIA VALENCIANA DE TURISME           D46   B 000000001639827  000000000000000 0000000000000000000 000000000405411 000000000000000 000000000586197 000000000000000 000000000203809 000000000000000 000000000444410 000000000000000                     000000000000000                                                                                                                                                                                                         
23472017B98877806S4600019F         ACADEMIA VALENCIANA DE LA LLENGUA       D46   B 000000001987481  000000000000000 0000000000000000000 000000000536529 000000000000000 000000000581924 000000000000000 000000000342507 000000000000000 000000000526521 000000000000000                     000000000000000                                                                                                                                                                                                         
23472017B98877806S4611001A         CONSELLERIA DE EDUCACION, INVESTIGACION,D46   B 000000031599870  000000000000000 0000000000000000000 000000004696398 000000000000000 000000005557172 000000000000000 000000009279109 000000000000000 000000012067191 000000000000000                     000000000000000                                                                                                                                                                                                         
23472017B98877806V98746241         GRUPO PARLAMENTARIO CIUDADANOS          D46   B 000000000521493  000000000000000 0000000000000000000 000000000186796 000000000000000 000000000132935 000000000000000 000000000062462 000000000000000 000000000139300 000000000000000                     000000000000000                                                                                                                                                                                                         
23472017B98877806V98748080         GRUPO MUNICIPAL CIUDADANOS CS           D46   B 000000000520591  000000000000000 0000000000000000000 000000000185796 000000000000000 000000000252809 000000000000000 000000000081986 000000000000000 000000000000000 000000000000000                     000000000000000                                                                                                                                                                                                         
23472017B98877806X3752245W         NIKOLAEV KALUSHKOV, YULIYAN             D46   B 000000000312053  000000000000000 0000000000000000000 000000000026917 000000000000000 000000000208895 000000000000000 000000000038695 000000000000000 000000000037546 000000000000000                     000000000000000                                                                                                                                                                                                         
23472017B9887780604531974P         MORENO LACORT, EMILIO                   D46   A 000000000319553  000000000000000 0000000000000000000 000000000059088 000000000000000 000000000095311 000000000000000 000000000069114 000000000000000 000000000096040 000000000000000                     000000000000000                                                                                                                                                                                                         
23472017B9887780604559326J         MARTINEZ MARTINEZ, JESUS                D46   A 000000000950906  000000000000000 0000000000000000000 000000000229870 000000000000000 000000000229528 000000000000000 000000000000000 000000000000000 000000000491508 000000000000000                     000000000000000                                                                                                                                                                                                         
23472017B9887780605118531L         PARDO GARCIA, MARIA                     D46   A 000000000495310  000000000000000 0000000000000000000 000000000085692 000000000000000 000000000049168 000000000000000 000000000197625 000000000000000 000000000162825 000000000000000                     000000000000000                                                                                                                                                                                                         
23472017B9887780605145864M         SANCHEZ GONZALEZ, JUAN FCO. FRASER      D46   A 000000001611490  000000000000000 0000000000000000000 000000000000000 000000000000000 000000000125840 000000000000000 000000000000000 000000000000000 000000001485650 000000000000000                     000000000000000                                                                                                                                                                                                         
23472017B9887780619455039Y         AUÑON VELASCO,HILARIO                   D46   A 000000000406278  000000000000000 0000000000000000000 000000000130302 000000000000000 000000000096111 000000000000000 000000000029311 000000000000000 000000000150554 000000000000000                     000000000000000                                                                                                                                                                                                         
23472017B9887780619463533J         CAMPOS ANAYA, MARI CARMEN               D46   A 000000000429654  000000000000000 0000000000000000000 000000000096789 000000000000000 000000000105919 000000000000000 000000000097816 000000000000000 000000000129130 000000000000000                     000000000000000                                                                                                                                                                                                         
23472017B9887780619820183W         MARCO LACUEVA, RAFAEL AGUSTIN           D46   A 000000002135904  000000000000000 0000000000000000000 000000000567224 000000000000000 000000000501581 000000000000000 000000000484455 000000000000000 000000000582644 000000000000000                     000000000000000                                                                                                                                                                                                         
23472017B9887780619835643Y         SEBASTIAN LIZONDO, MIGUEL JOAQ          D46   A 000000000624594  000000000000000 0000000000000000000 000000000156734 000000000000000 000000000188939 000000000000000 000000000130296 000000000000000 000000000148625 000000000000000                     000000000000000                                                                                                                                                                                                         
23472017B9887780619844591F         CASTILLO PANZUELA, SANTIAGO             D46   A 000000000556262  000000000000000 0000000000000000000 000000000360636 000000000000000 000000000006949 000000000000000 000000000000000 000000000000000 000000000188677 000000000000000                     000000000000000                                                                                                                                                                                                         
23472017B9887780619877555N         LLACER SANCHO, FEDERICO                 D46   A 000000000425490  000000000000000 0000000000000000000 000000000057212 000000000000000 000000000139548 000000000000000 000000000081438 000000000000000 000000000147292 000000000000000                     000000000000000                                                                                                                                                                                                         
23472017B9887780619889426S         MARTINEZ PARDO, GERARDO                 D46   A 000000000384184  000000000000000 0000000000000000000 000000000000843 000000000000000 000000000139115 000000000000000 000000000145527 000000000000000 000000000098699 000000000000000                     000000000000000                                                                                                                                                                                                         
23472017B9887780619898826P         PARDO GARCIA, JUAN                      D46   A 000000001766964  000000000000000 0000000000000000000 000000000501165 000000000000000 000000000421714 000000000000000 000000000407392 000000000000000 000000000436693 000000000000000                     000000000000000                                                                                                                                                                                                         
23472017B9887780620148399P         MARTINEZ TALAMANTE, RICARDO J.          D46   A 000000000370303  000000000000000 0000000000000000000 000000000114896 000000000000000 000000000086908 000000000000000 000000000053860 000000000000000 000000000114639 000000000000000                     000000000000000                                                                                                                                                                                                         
23472017B9887780620164371H         MARCH CARRA, ENRIQUE                    D46   A 000000000821964  000000000000000 0000000000000000000 000000000409327 000000000000000 000000000008688 000000000000000 000000000000000 000000000000000 000000000403949 000000000000000                     000000000000000                                                                                                                                                                                                         
23472017B9887780620372213D         PARDO ALFONSO, CARMELO                  D46   A 000000001358309  000000000000000 0000000000000000000 000000000258107 000000000000000 000000000353932 000000000000000 000000000366409 000000000000000 000000000379861 000000000000000                     000000000000000                                                                                                                                                                                                         
23472017B9887780620771065H         ZORNOZA BRIZ, AVELINO                   D46   A 000000002149581  000000000000000 0000000000000000000 000000000560919 000000000000000 000000000549424 000000000000000 000000000493060 000000000000000 000000000546178 000000000000000                     000000000000000                                                                                                                                                                                                         
23472017B9887780620801880J         JUMILLA PEREZ, SILVIA                   D46   A 000000000359488  000000000000000 0000000000000000000 000000000082194 000000000000000 000000000116547 000000000000000 000000000082713 000000000000000 000000000078034 000000000000000                     000000000000000                                                                                                                                                                                                         
23472017B9887780622533749M         QUILIS RAMOS, JOAQUIN                   D46   A 000000000343402  000000000000000 0000000000000000000 000000000062980 000000000000000 000000000036354 000000000000000 000000000080154 000000000000000 000000000163914 000000000000000                     000000000000000                                                                                                                                                                                                         
23472017B9887780622541181P         MATOSES ALAGARDA, JOSE                  D46   A 000000000365444  000000000000000 0000000000000000000 000000000042890 000000000000000 000000000132526 000000000000000 000000000072373 000000000000000 000000000117655 000000000000000                     000000000000000                                                                                                                                                                                                         
23472017B9887780622565164W         GRANADOS CUESTA, MIGUEL ANGEL           D46   A 000000000489503  000000000000000 0000000000000000000 000000000114380 000000000000000 000000000154745 000000000000000 000000000177871 000000000000000 000000000042507 000000000000000                     000000000000000                                                                                                                                                                                                         
23472017B9887780622579886G         PIERA LOPEZ CARLOS                      D46   A 000000000769681  000000000000000 0000000000000000000 000000000000000 000000000000000 000000000064735 000000000000000 000000000000000 000000000000000 000000000704946 000000000000000                     000000000000000                                                                                                                                                                                                         
23472017B9887780622614573F         HERRERO PEREZ, MANUEL                   D46   A 000000000402805  000000000000000 0000000000000000000 000000000102667 000000000000000 000000000090601 000000000000000 000000000054917 000000000000000 000000000154620 000000000000000                     000000000000000                                                                                                                                                                                                         
23472017B9887780622620808D         MARQUEZ FERNANDEZ, FRANCISCO            D46   A 000000000537181  000000000000000 0000000000000000000 000000000142287 000000000000000 000000000095120 000000000000000 000000000121324 000000000000000 000000000178450 000000000000000                     000000000000000                                                                                                                                                                                                         
23472017B9887780622630535F         TOMAS LOPEZ, JUAN ANTONIO               D46   A 000000000788834  000000000000000 0000000000000000000 000000000392986 000000000000000 000000000131712 000000000000000 000000000104326 000000000000000 000000000159810 000000000000000                     000000000000000                                                                                                                                                                                                         
23472017B9887780622647099B         GONZALEZ DESCALZO, JOSE ANTONI          D46   A 000000002192557  000000000000000 0000000000000000000 000000000574945 000000000000000 000000000532439 000000000000000 000000000524881 000000000000000 000000000560292 000000000000000                     000000000000000                                                                                                                                                                                                         
23472017B9887780622673408P         GOMEZ MARTIN, FRANCISCO                 D46   A 000000001584000  000000000000000 0000000000000000000 000000000230000 000000000000000 000000000404000 000000000000000 000000000425000 000000000000000 000000000525000 000000000000000                     000000000000000                                                                                                                                                                                                         
23472017B9887780622683755M         CHULIA OLMOS, ENRIQUE                   D46   A 000000000908933  000000000000000 0000000000000000000 000000000153906 000000000000000 000000000246651 000000000000000 000000000181369 000000000000000 000000000327007 000000000000000                     000000000000000                                                                                                                                                                                                         
23472017B9887780622686019S         ESTEVE ROVIRA, MANUEL JOSE              D46   A 000000000901798  000000000000000 0000000000000000000 000000000072529 000000000000000 000000000204472 000000000000000 000000000159122 000000000000000 000000000465675 000000000000000                     000000000000000                                                                                                                                                                                                         
23472017B9887780624309486G         PEREZ MARTINEZ, JOSE PEDRO              D46   A 000000000389665  000000000000000 0000000000000000000 000000000085258 000000000000000 000000000114100 000000000000000 000000000051016 000000000000000 000000000139291 000000000000000                     000000000000000                                                                                                                                                                                                         
23472017B9887780624351948P         LOZANO RAMIREZ, MIGUEL ANGEL            D46   A 000000000455976  000000000000000 0000000000000000000 000000000328824 000000000000000 000000000037157 000000000000000 000000000036045 000000000000000 000000000053950 000000000000000                     000000000000000                                                                                                                                                                                                         
23472017B9887780624358731Y         MIGUEL PUIG, GREGORIO JOSE              D46   A 000000000378614  000000000000000 0000000000000000000 000000000119939 000000000000000 000000000080325 000000000000000 000000000076730 000000000000000 000000000101620 000000000000000                     000000000000000                                                                                                                                                                                                         
23472017B9887780624359059N         VIDAL BALLESTER, ROBERTO                D46   A 000000000400110  000000000000000 0000000000000000000 000000000101994 000000000000000 000000000059745 000000000000000 000000000072981 000000000000000 000000000165390 000000000000000                     000000000000000                                                                                                                                                                                                         
23472017B9887780624360355C         BALLESTEROS GUILLEN, AMPARO             D46   A 000000000316381  000000000000000 0000000000000000000 000000000108192 000000000000000 000000000061453 000000000000000 000000000062671 000000000000000 000000000084065 000000000000000                     000000000000000                                                                                                                                                                                                         
23472017B9887780624367501J         AZCUTIA PASCUAL, JUAN CARLOS            D46   A 000000000320020  000000000000000 0000000000000000000 000000000000000 000000000000000 000000000000000 000000000000000 000000000000000 000000000000000 000000000320020 000000000000000                     000000000000000                                                                                                                                                                                                         
23472017B9887780625386686E         LOZANO RAMIREZ, JESUS                   D46   A 000000000478330  000000000000000 0000000000000000000 000000000376505 000000000000000 000000000031939 000000000000000 000000000025901 000000000000000 000000000043985 000000000000000                     000000000000000                                                                                                                                                                                                         
23472017B9887780625388476H         JIMENEZ FERNANDEZ, JOSE ANT.            D46   A 000000001000406  000000000000000 0000000000000000000 000000000251738 000000000000000 000000000322840 000000000000000 000000000301781 000000000000000 000000000124047 000000000000000                     000000000000000                                                                                                                                                                                                         
23472017B9887780625402708J         VAZQUEZ MOLINOS, LUIS JAVIER            D46   A 000000001188301  000000000000000 0000000000000000000 000000000301276 000000000000000 000000000322183 000000000000000 000000000244364 000000000000000 000000000320478 000000000000000                     000000000000000                                                                                                                                                                                                         
23472017B9887780625407843L         MARTINEZ SANCHEZ, JUAN PEDRO            D46   A 000000000695754  000000000000000 0000000000000000000 000000000371125 000000000000000 000000000045355 000000000000000 000000000044727 000000000000000 000000000234547 000000000000000                     000000000000000                                                                                                                                                                                                         
23472017B9887780625410411B         ADALID BLASCO,VICENTE SALVADOR          D46   A 000000000696639  000000000000000 0000000000000000000 000000000000000 000000000000000 000000000181817 000000000000000 000000000208498 000000000000000 000000000306324 000000000000000                     000000000000000                                                                                                                                                                                                         
23472017B9887780625411030D         MARTINEZ MONLEON, JOSE ANTONIO          D46   A 000000000463891  000000000000000 0000000000000000000 000000000104664 000000000000000 000000000124446 000000000000000 000000000089916 000000000000000 000000000144865 000000000000000                     000000000000000                                                                                                                                                                                                         
23472017B9887780625423175X         MARTIN MARIN, VICTOR                    D46   A 000000000503084  000000000000000 0000000000000000000 000000000363815 000000000000000 000000000072701 000000000000000 000000000020678 000000000000000 000000000045890 000000000000000                     000000000000000                                                                                                                                                                                                         
23472017B9887780625424587L         MONTERO HUERTA, JOSE NARCISO            D46   A 000000000495344  000000000000000 0000000000000000000 000000000127546 000000000000000 000000000157122 000000000000000 000000000113841 000000000000000 000000000096835 000000000000000                     000000000000000                                                                                                                                                                                                         
23472017B9887780629201624L         GARCIA BARCENAS, EDUARDO                D46   A 000000000328582  000000000000000 0000000000000000000 000000000033487 000000000000000 000000000106514 000000000000000 000000000107212 000000000000000 000000000081369 000000000000000                     000000000000000                                                                                                                                                                                                         
23472017B9887780629209505B         GUERRA BOUBECHTOULA, ABDELTIF           D46   A 000000000394611  000000000000000 0000000000000000000 000000000077044 000000000000000 000000000021477 000000000000000 000000000085462 000000000000000 000000000210628 000000000000000                     000000000000000                                                                                                                                                                                                         
23472017B9887780633463496Z         REPISO GARCIA, MANUEL                   D46   A 000000000325671  000000000000000 0000000000000000000 000000000039385 000000000000000 000000000098130 000000000000000 000000000081066 000000000000000 000000000107090 000000000000000                     000000000000000                                                                                                                                                                                                         
23472017B9887780633469328G         CASTELLO ROS, SAUL                      D46   A 000000000337491  000000000000000 0000000000000000000 000000000065179 000000000000000 000000000147814 000000000000000 000000000081463 000000000000000 000000000043035 000000000000000                     000000000000000                                                                                                                                                                                                         
23472017B9887780644531320P         GUERRA DE LA LUNA, OMAR                 D46   A 000000000323916  000000000000000 0000000000000000000 000000000045310 000000000000000 000000000027593 000000000000000 000000000094928 000000000000000 000000000156085 000000000000000                     000000000000000                                                                                                                                                                                                         
23472017B9887780644850978N         TELLEZ SERRANO, ANGEL                   D46   A 000000000504929  000000000000000 0000000000000000000 000000000376325 000000000000000 000000000035599 000000000000000 000000000019375 000000000000000 000000000073630 000000000000000                     000000000000000                                                                                                                                                                                                         
23472017B9887780644856019Q         CORREA PEREZ, JOSE MANUEL               D46   A 000000000314152  000000000000000 0000000000000000000 000000000054888 000000000000000 000000000089027 000000000000000 000000000075392 000000000000000 000000000094845 000000000000000                     000000000000000                                                                                                                                                                                                         
23472017B9887780644856595V         CANO PEREZ, ESTHER PUBLIKAN             D46   A 000000001126581  000000000000000 0000000000000000000 000000000000000 000000000000000 000000000000000 000000000000000 000000000020517 000000000000000 000000001106064 000000000000000                     000000000000000                                                                                                                                                                                                         
23472017B9887780646060380M         ALCANTARA REAL, ANTONIO                 D46   A 000000000331839  000000000000000 0000000000000000000 000000000088045 000000000000000 000000000094315 000000000000000 000000000050744 000000000000000 000000000098735 000000000000000                     000000000000000                                                                                                                                                                                                         
23472017B9887780652381053W         HORCAJADA JIMENEZ, MIGUEL ARC.          D46   A 000000001181374  000000000000000 0000000000000000000 000000000087537 000000000000000 000000000395941 000000000000000 000000000268599 000000000000000 000000000429297 000000000000000                     000000000000000                                                                                                                                                                                                         
23472017B9887780652640801B         CARRERES OREA, MARCOS MANUEL            D46   A 000000000569005  000000000000000 0000000000000000000 000000000078511 000000000000000 000000000110140 000000000000000 000000000113229 000000000000000 000000000267125 000000000000000                     000000000000000                                                                                                                                                                                                         
23472017B9887780652644988N         RODRIGUEZ I GONZALEZ, JOSEP M.          D46   A 000000000368081  000000000000000 0000000000000000000 000000000122803 000000000000000 000000000076440 000000000000000 000000000062809 000000000000000 000000000106029 000000000000000                     000000000000000                                                                                                                                                                                                         
23472017B9887780652676756V         FLORES UTRILLAS, JULIAN                 D46   A 000000000356518  000000000000000 0000000000000000000 000000000140286 000000000000000 000000000109465 000000000000000 000000000073582 000000000000000 000000000033185 000000000000000                     000000000000000                                                                                                                                                                                                         
23472017B9887780652704432R         GARCIA FERNANDEZ, FCO JOSE              D46   A 000000000337952  000000000000000 0000000000000000000 000000000087995 000000000000000 000000000064647 000000000000000 000000000105535 000000000000000 000000000079775 000000000000000                     000000000000000                                                                                                                                                                                                         
23472017B9887780652740262C         APARICIO CARRASCOSA, AGUSTIN            D46   A 000000000313977  000000000000000 0000000000000000000 000000000068625 000000000000000 000000000089739 000000000000000 000000000052018 000000000000000 000000000103595 000000000000000                     000000000000000                                                                                                                                                                                                         
23472017B9887780652745924R         LOPEZ MARIN, JOSE LUIS                  D46   A 000000000391657  000000000000000 0000000000000000000 000000000084352 000000000000000 000000000122865 000000000000000 000000000055395 000000000000000 000000000129045 000000000000000                     000000000000000                                                                                                                                                                                                         
23472017B9887780653054747A         GARCIA PARDO, VICTOR JAVIER             D46   A 000000000433462  000000000000000 0000000000000000000 000000000055429 000000000000000 000000000124323 000000000000000 000000000113989 000000000000000 000000000139721 000000000000000                     000000000000000                                                                                                                                                                                                         
23472017B9887780653203661S         LAGUNAS MARIN, JOSE LUIS                D46   A 000000000530655  000000000000000 0000000000000000000 000000000102198 000000000000000 000000000202856 000000000000000 000000000117902 000000000000000 000000000107699 000000000000000                     000000000000000                                                                                                                                                                                                         
23472017B98877806724367501         AZCUTIA PASCUAL, JUAN CARLOS            D46   A 000000000354457  000000000000000 0000000000000000000 000000000000000 000000000000000 000000000125166 000000000000000 000000000229291 000000000000000 000000000000000 000000000000000                     000000000000000                                                                                                                                                                                                         
23472017B9887780673548029D         MARTINEZ PEREZ, JUAN CARLOS TAXI BUÑOL  D46   A 000000001938198  000000000000000 0000000000000000000 000000000386590 000000000000000 000000000564458 000000000000000 000000000494620 000000000000000 000000000492530 000000000000000                     000000000000000                                                                                                                                                                                                         
23472017B9887780673751639T         ALONSO GIMENO, JUAN                     D46   A 000000000396450  000000000000000 0000000000000000000 000000000067697 000000000000000 000000000151610 000000000000000 000000000077967 000000000000000 000000000099176 000000000000000                     000000000000000                                                                                                                                                                                                         
23472017B9887780675705593N         JURADO MURILLO,ANGELA                   D46   A 000000000505301  000000000000000 0000000000000000000 000000000087068 000000000000000 000000000153036 000000000000000 000000000127062 000000000000000 000000000138135 000000000000000                     000000000000000                                                                                                                                                                                                         
23472017B98877806A28141935         MAPFRE ESPAÑA, CIA SEGUROS Y REASEG. SA D28   A 000000004114121  000000000000000 0000000000000000000 000000000748022 000000000000000 000000001122033 000000000000000 000000001122033 000000000000000 000000001122033 000000000000000                     000000000000000                                                                                                                                                                                                         
23472017B98877806A28712479         OVELAR, S.A.                            D28   A 000000001105335  000000000000000 0000000000000000000 000000000000000 000000000000000 000000000000000 000000000000000 000000000000000 000000000000000 000000001105335 000000000000000                     000000000000000                                                                                                                                                                                                         
23472017B98877806A28782936         UNIPREX, S.A.U.                         D28   A 000000000363000  000000000000000 0000000000000000000 000000000000000 000000000000000 000000000000000 000000000000000 000000000000000 000000000000000 000000000363000 000000000000000                     000000000000000                                                                                                                                                                                                         
23472017B98877806A46086773         EXCIN, S.A.                             D46   A 000000000550000  000000000000000 0000000000000000000 000000000000000 000000000000000 000000000000000 000000000000000 000000000000000 000000000000000 000000000550000 000000000000000                     000000000000000                                                                                                                                                                                                         
23472017B98877806A46229290         EDIT. PRENSA VALENCIANA, S.A.           D46   A 000000000667698  000000000000000 0000000000000000000 000000000163776 000000000000000 000000000165720 000000000000000 000000000169368 000000000000000 000000000168834 000000000000000                     000000000000000                                                                                                                                                                                                         
23472017B98877806A58225137         INTERFACOM, S.A.                        D08   A 000000005674170  000000000000000 0000000000000000000 000000004378500 000000000000000 000000000155754 000000000000000 000000000286271 000000000000000 000000000853645 000000000000000                     000000000000000                                                                                                                                                                                                         
23472017B98877806A80907397         VODAFONE ESPAÑA S.A.U.                  D28   A 000000000737207  000000000000000 0000000000000000000 000000000079186 000000000000000 000000000219057 000000000000000 000000000165681 000000000000000 000000000273283 000000000000000                     000000000000000                                                                                                                                                                                                         
23472017B98877806A82018474         TELEFONICA DE ESPAÑA SAU                D28   A 000000000472076  000000000000000 0000000000000000000 000000000148574 000000000000000 000000000136180 000000000000000 000000000093852 000000000000000 000000000093470 000000000000000                     000000000000000                                                                                                                                                                                                         
23472017B98877806A96793872         COMPAÑIA VALENCIANA DE RADIO TAXI, SAU  D46   A 000000000568567  000000000000000 0000000000000000000 000000000568567 000000000000000 000000000000000 000000000000000 000000000000000 000000000000000 000000000000000 000000000000000                     000000000000000                                                                                                                                                                                                         
23472017B98877806B28877116         LIMPIEZAS ALARCON, S.L.                 D28   A 000000000720839  000000000000000 0000000000000000000 000000000181906 000000000000000 000000000114779 000000000000000 000000000243487 000000000000000 000000000180667 000000000000000                     000000000000000                                                                                                                                                                                                         
23472017B98877806B46155719         TEINSA, S.L.                            D46   A 000000000650963  000000000000000 0000000000000000000 000000000000000 000000000000000 000000000285346 000000000000000 000000000080271 000000000000000 000000000285346 000000000000000                     000000000000000                                                                                                                                                                                                         
23472017B98877806B73272197         EFFORT RECURSOS HUMANOS ETT, S.L.       D30   A 000000003676900  000000000000000 0000000000000000000 000000001192281 000000000000000 000000001248386 000000000000000 000000000964960 000000000000000 000000000271273 000000000000000                     000000000000000                                                                                                                                                                                                         
23472017B98877806B96225206         NOU STIL GRAFIC, S.L.                   D46   A 000000002100537  000000000000000 0000000000000000000 000000000133706 000000000000000 000000000067929 000000000000000 000000000229005 000000000000000 000000001669897 000000000000000                     000000000000000                                                                                                                                                                                                         
23472017B98877806B96470190         ARIADNA SOFTWARE, S.L.                  D46   A 000000000774400  000000000000000 0000000000000000000 000000000000000 000000000000000 000000000000000 000000000000000 000000000000000 000000000000000 000000000774400 000000000000000                     000000000000000                                                                                                                                                                                                         
23472017B98877806B96713490         JESUS ESTEVE S.L.                       D46   A 000000001030122  000000000000000 0000000000000000000 000000000498648 000000000000000 000000000468988 000000000000000 000000000033473 000000000000000 000000000029013 000000000000000                     000000000000000                                                                                                                                                                                                         
23472017B98877806B97033039         HTEC INFORMATICA PROFESIONAL, S.L.      D46   A 000000000387200  000000000000000 0000000000000000000 000000000290400 000000000000000 000000000096800 000000000000000 000000000000000 000000000000000 000000000000000 000000000000000                     000000000000000                                                                                                                                                                                                         
23472017B98877806B97111835         JUVERD SOLUCIONES PUBLICITARIAS, S.L.   D46   A 000000001149500  000000000000000 0000000000000000000 000000000000000 000000000000000 000000000000000 000000000000000 000000000000000 000000000000000 000000001149500 000000000000000                     000000000000000                                                                                                                                                                                                         
23472017B98877806B98007982         KAIZEN GROUP-APPLIED MARK.& RESEARCH SL D46   A 000000001158471  000000000000000 0000000000000000000 000000000000000 000000000000000 000000000000000 000000000000000 000000000295240 000000000000000 000000000863231 000000000000000                     000000000000000                                                                                                                                                                                                         
23472017B98877806E46238879         COM. PROPIETARIOS EDIFICIO VALENCIA     D46   A 000000002741496  000000000000000 0000000000000000000 000000000685374 000000000000000 000000000685374 000000000000000 000000000685374 000000000000000 000000000685374 000000000000000                     000000000000000                                                                                                                                                                                                         
23472017B98877806F12047163         RADIO TAXI CASTELLON, COOP.V.           D12   A 000000000403329  000000000000000 0000000000000000000 000000000105000 000000000000000 000000000212500 000000000000000 000000000030829 000000000000000 000000000055000 000000000000000                     000000000000000                                                                                                                                                                                                         
23472017B98877806F46029260         COOPERATIVA VALENCIANA DE TAXISTAS      D46   A 000000003348711  000000000000000 0000000000000000000 000000000847500 000000000000000 000000001163840 000000000000000 000000000744159 000000000000000 000000000593212 000000000000000                     000000000000000                                                                                                                                                                                                         
23472017B98877806F46408464         CTA CONSULTORS COOPERATIVA VALENCIANA   D46   A 000000000363321  000000000000000 0000000000000000000 000000000121981 000000000000000 000000000068850 000000000000000 000000000072535 000000000000000 000000000099955 000000000000000                     000000000000000                                                                                                                                                                                                         
23472017B98877806F96762737         VERSIS CONSULTING COOP.V.               D46   A 000000000723278  000000000000000 0000000000000000000 000000000369692 000000000000000 000000000146909 000000000000000 000000000100614 000000000000000 000000000106063 000000000000000                     000000000000000                                                                                                                                                                                                         
23472017B98877806G46697488         ASOCIACION DE TAXISTAS DE GANDIA        D46   A 000000000357160  000000000000000 0000000000000000000 000000000034875 000000000000000 000000000008500 000000000000000 000000000143680 000000000000000 000000000170105 000000000000000                     000000000000000                                                                                                                                                                                                         
23472017B98877806G46981791         ASOCIACION RADIO TAXI SAGUNTO-CAMP MORVED46   A 000000000343613  000000000000000 0000000000000000000 000000000042800 000000000000000 000000000132700 000000000000000 000000000094300 000000000000000 000000000073813 000000000000000                     000000000000000                                                                                                                                                                                                         
23472017B98877806G85918282         ASOCIACION DE RADIO TAXI DE ESPAÑA      D28   A 000000001924690  000000000000000 0000000000000000000 000000000154872 000000000000000 000000000228732 000000000000000 000000000307424 000000000000000 000000001233662 000000000000000                     000000000000000                                                                                                                                                                                                         
23472017B98877806IE6388047         GOOGLE IRELAND, LTD.                    D00   A 000000000456090  000000000000000 0000000000000000000 000000000074319 000000000000000 000000000252130 000000000000000 000000000055778 000000000000000 000000000073863 000000000000000                     000000000000000                                                                                                                                                                                                         
23472017B98877806X                 FACTURACION                             D00   A 000000000541208  000000000000000 0000000000000000000 000000000000000 000000000000000 000000000027111 000000000000000 000000000022874 000000000000000 000000000491223 000000000000000                     000000000000000                                                                                                                                                                                                         
