13472018B96470190ARIADNA SOFTWARE, S.L.                  T963805579RAFAEL GARCIA REDONDO                   3470000000000  0000000000000000000037 000000025568811000000000 000000000000000                                                                                                                                                                                                                                                                                                                           
23472018B96470190A46103594         GD ENERGY SERVICES, S.A.U.              D46   B 000000000723580  000000000000000 0000000000000000000 000000000543895 000000000000000 000000000059895 000000000000000 000000000059895 000000000000000 000000000059895 000000000000000                     000000000000000                                                                                                                                                                                                         
23472018B96470190A46194528         INGENIERIA Y MARKETING, S.A.            D46   B 000000000968000  000000000000000 0000000000000000000 000000000000000 000000000000000 000000000484000 000000000000000 000000000242000 000000000000000 000000000242000 000000000000000                     000000000000000                                                                                                                                                                                                         
23472018B96470190A46558342         ALFREDO FENOLLAR, S.A.                  D46   B 000000000406560  000000000000000 0000000000000000000 000000000000000 000000000000000 000000000000000 000000000000000 000000000101640 000000000000000 000000000304920 000000000000000                     000000000000000                                                                                                                                                                                                         
23472018B96470190B20899563         EULER POMPAK, S.L.U.                    D46   B 000000000656123  000000000000000 0000000000000000000 000000000101338 000000000000000 000000000063525 000000000000000 000000000391435 000000000000000 000000000099825 000000000000000                     000000000000000                                                                                                                                                                                                         
23472018B96470190B46036083         JOSE MORALES, S.L.                      D46   B 000000000692786  000000000000000 0000000000000000000 000000000320166 000000000000000 000000000088935 000000000000000 000000000209270 000000000000000 000000000074415 000000000000000                     000000000000000                                                                                                                                                                                                         
23472018B96470190B46135372         HERBELCA, S.L.                          D46   B 000000001062486  000000000000000 0000000000000000000 000000000264293 000000000000000 000000000394779 000000000000000 000000000200497 000000000000000 000000000202917 000000000000000                     000000000000000                                                                                                                                                                                                         
23472018B96470190B46155719         TEINSA, S.L.                            D46   B 000000000425398  000000000000000 0000000000000000000 000000000165165 000000000000000 000000000131540 000000000000000 000000000098443 000000000000000 000000000030250 000000000000000                     000000000000000                                                                                                                                                                                                         
23472018B96470190B81323180         PROASISTENCIA, S.L.                     D28   B 000000000719950  000000000000000 0000000000000000000 000000000301895 000000000000000 000000000059895 000000000000000 000000000211145 000000000000000 000000000147015 000000000000000                     000000000000000                                                                                                                                                                                                         
23472018B96470190B96465265         SMT ASESORES, S.L.P.                    D46   B 000000000477917  000000000000000 0000000000000000000 000000000221616 000000000000000 000000000056265 000000000000000 000000000059804 000000000000000 000000000140232 000000000000000                     000000000000000                                                                                                                                                                                                         
23472018B96470190B97090781         NATURAL DE MONTAÑA, S.L.                D46   B 000000000402226  000000000000000 0000000000000000000 000000000072600 000000000000000 000000000072600 000000000000000 000000000169906 000000000000000 000000000087120 000000000000000                     000000000000000                                                                                                                                                                                                         
23472018B96470190B97112973         CARRAU CORP.JURID.Y FINAN. SL           D46   B 000000001195263  000000000000000 0000000000000000000 000000000271040 000000000000000 000000000397119 000000000000000 000000000330132 000000000000000 000000000196972 000000000000000                     000000000000000                                                                                                                                                                                                         
23472018B96470190B97765655         ABASTOS ABOGADOS, S.L.P.                D46   B 000000000642365  000000000000000 0000000000000000000 000000000014520 000000000000000 000000000089298 000000000000000 000000000007260 000000000000000 000000000531287 000000000000000                     000000000000000                                                                                                                                                                                                         
23472018B96470190B98354574         GRUPO CLINICO MIESTETIC, S.L.           D46   B 000000000350295  000000000000000 0000000000000000000 000000000045375 000000000000000 000000000073205 000000000000000 000000000134915 000000000000000 000000000096800 000000000000000                     000000000000000                                                                                                                                                                                                         
23472018B96470190B98877806         RADIO TAXI METROPOLITANO DE VALENCIA,S.LD46   B 000000000606150  000000000000000 0000000000000000000 000000000340615 000000000000000 000000000109445 000000000000000 000000000059895 000000000000000 000000000096195 000000000000000                     000000000000000                                                                                                                                                                                                         
23472018B96470190F41066481         RADIO TAXI SEVILLA, S.C.A.              D41   B 000000000350900  000000000000000 0000000000000000000 000000000000000 000000000000000 000000000000000 000000000000000 000000000000000 000000000000000 000000000350900 000000000000000                     000000000000000                                                                                                                                                                                                         
23472018B96470190F46024196         ALZICOOP, COOP.HORT. DE ALZIRA          D46   B 000000000907442  000000000000000 0000000000000000000 000000000263538 000000000000000 000000000234561 000000000000000 000000000179080 000000000000000 000000000230263 000000000000000                     000000000000000                                                                                                                                                                                                         
23472018B96470190F46025151         CASTELDUC. S.COOP.V.                    D46   B 000000000493075  000000000000000 0000000000000000000 000000000082280 000000000000000 000000000059895 000000000000000 000000000090145 000000000000000 000000000260755 000000000000000                     000000000000000                                                                                                                                                                                                         
23472018B96470190F46025326         COOP. VIN. QUATRETONDA, COOP.V          D46   B 000000000458772  000000000000000 0000000000000000000 000000000079860 000000000000000 000000000189244 000000000000000 000000000106480 000000000000000 000000000083188 000000000000000                     000000000000000                                                                                                                                                                                                         
23472018B96470190F46026084         COOP. DEL CAMP DE LLUTXENT              D46   B 000000000966904  000000000000000 0000000000000000000 000000000416240 000000000000000 000000000138001 000000000000000 000000000178415 000000000000000 000000000234248 000000000000000                     000000000000000                                                                                                                                                                                                         
23472018B96470190F46026282         COOP. V. SAN PEDRO APOSTOL              D46   B 000000000384223  000000000000000 0000000000000000000 000000000103455 000000000000000 000000000109553 000000000000000 000000000076835 000000000000000 000000000094380 000000000000000                     000000000000000                                                                                                                                                                                                         
23472018B96470190F46026464         COOP. V. CRISTO DE LA SALUD             D46   B 000000000312664  000000000000000 0000000000000000000 000000000090750 000000000000000 000000000058080 000000000000000 000000000113014 000000000000000 000000000050820 000000000000000                     000000000000000                                                                                                                                                                                                         
23472018B96470190F46026621         AGRO-CITRICA DE PICASSENT, COOP. V.     D46   B 000000000793288  000000000000000 0000000000000000000 000000000109263 000000000000000 000000000262594 000000000000000 000000000268039 000000000000000 000000000153392 000000000000000                     000000000000000                                                                                                                                                                                                         
23472018B96470190F46026647         COOP. AGR. SAN ISIDRO LABRADOR, COOP V. D46   B 000000000623574  000000000000000 0000000000000000000 000000000098615 000000000000000 000000000212355 000000000000000 000000000216409 000000000000000 000000000096195 000000000000000                     000000000000000                                                                                                                                                                                                         
23472018B96470190F46026696         VIT. DE LA POBLA DEL DUC, COOP          D46   B 000000000632498  000000000000000 0000000000000000000 000000000074076 000000000000000 000000000191707 000000000000000 000000000106601 000000000000000 000000000260114 000000000000000                     000000000000000                                                                                                                                                                                                         
23472018B96470190F46038881         AGRICOLA DE CATADAU, S.C.V.L.           D46   B 000000001489750  000000000000000 0000000000000000000 000000000367984 000000000000000 000000000601466 000000000000000 000000000338848 000000000000000 000000000181452 000000000000000                     000000000000000                                                                                                                                                                                                         
23472018B96470190F46219317         COFRUDECA COOP. V.                      D46   B 000000001163332  000000000000000 0000000000000000000 000000000520688 000000000000000 000000000312725 000000000000000 000000000173224 000000000000000 000000000156695 000000000000000                     000000000000000                                                                                                                                                                                                         
23472018B96470190F46221503         COOP. V. LIMITADA TELE-TAXI             D46   B 000000000424170  000000000000000 0000000000000000000 000000000095469 000000000000000 000000000153549 000000000000000 000000000076053 000000000000000 000000000099099 000000000000000                     000000000000000                                                                                                                                                                                                         
23472018B96470190F96697131         COOP. DE 2 GRADO EL REGAIXO             D46   B 000000000304920  000000000000000 0000000000000000000 000000000085305 000000000000000 000000000096195 000000000000000 000000000063525 000000000000000 000000000059895 000000000000000                     000000000000000                                                                                                                                                                                                         
23472018B96470190G14083265         ASOC. PROV. TRAB..AUTOTAXI CORDOBA      D14   B 000000000584430  000000000000000 0000000000000000000 000000000000000 000000000000000 000000000435600 000000000000000 000000000088935 000000000000000 000000000059895 000000000000000                     000000000000000                                                                                                                                                                                                         
23472018B96470190G46076147         REAL ACEQUIA ESCALONA                   D46   B 000000000526423  000000000000000 0000000000000000000 000000000100430 000000000000000 000000000245630 000000000000000 000000000070180 000000000000000 000000000110183 000000000000000                     000000000000000                                                                                                                                                                                                         
23472018B96470190V40513517         RIBERCAQUI S.A.T.                       D46   B 000000000417450  000000000000000 0000000000000000000 000000000000000 000000000000000 000000000000000 000000000000000 000000000388410 000000000000000 000000000029040 000000000000000                     000000000000000                                                                                                                                                                                                         
23472018B96470190V98987266         INMA FRUITS SAT N 657CV                 D46   B 000000001287578  000000000000000 0000000000000000000 000000000000000 000000000000000 000000000000000 000000000000000 000000001013496 000000000000000 000000000274082 000000000000000                     000000000000000                                                                                                                                                                                                         
23472018B96470190B58728585         TECH DATA ESPAÑA, S.L. UNIP.            D08   A 000000000771859  000000000000000 0000000000000000000 000000000335045 000000000000000 000000000154080 000000000000000 000000000147647 000000000000000 000000000135087 000000000000000                     000000000000000                                                                                                                                                                                                         
23472018B96470190B60310356         SAT INFO, S.L.                          D08   A 000000000351788  000000000000000 0000000000000000000 000000000045509 000000000000000 000000000061603 000000000000000 000000000056620 000000000000000 000000000188056 000000000000000                     000000000000000                                                                                                                                                                                                         
23472018B96470190B61802302         KIMALDI ELECTRONICS, S.L.               D08   A 000000000316288  000000000000000 0000000000000000000 000000000025773 000000000000000 000000000008028 000000000000000 000000000127758 000000000000000 000000000154729 000000000000000                     000000000000000                                                                                                                                                                                                         
23472018B96470190B84443985         ESPRINET IBERICA, S.L.U.                D50   A 000000002328664  000000000000000 0000000000000000000 000000000733244 000000000000000 000000000489710 000000000000000 000000000518529 000000000000000 000000000587181 000000000000000                     000000000000000                                                                                                                                                                                                         
23472018B96470190B85049435         1&1 INTERNET ESPAÑA, S.L.U.             D28   A 000000000349720  000000000000000 0000000000000000000 000000000093226 000000000000000 000000000085601 000000000000000 000000000080231 000000000000000 000000000090662 000000000000000                     000000000000000                                                                                                                                                                                                         
