13472020B46036083JOSE MORALES S.L.                       T962481600                                        3470000002020  0000000000000000000038 000000408458409000000000 000000000000000                                                                                                                                                                                                                                                                                                                           
23472020B4603608319095268R         VIECO LOZANO, MARIA DESAMPARADOS        D46   B 000000000609361  000000000000000 0000000000000000000 000000000609361 000000000000000 000000000000000 000000000000000 000000000000000 000000000000000 000000000000000 000000000000000                     000000000000000                                                                                                                                                                                                         
23472020B4603608320808419C         PRESENCIA FERRER, MARTA                 D46   B 000000000729584  000000000000000 0000000000000000000 000000000729584 000000000000000 000000000000000 000000000000000 000000000000000 000000000000000 000000000000000 000000000000000                     000000000000000                                                                                                                                                                                                         
23472020B4603608352812529K         LOPEZ DE GEA, JUAN ANTONIO              D30   B 000000000807437  000000000000000 0000000000000000000 000000000807437 000000000000000 000000000000000 000000000000000 000000000000000 000000000000000 000000000000000 000000000000000                     000000000000000                                                                                                                                                                                                         
23472020B46036083B53277653         ACEITES MENGUAL, S.L.                   D03   B 000000017371815  000000000000000 0000000000000000000 000000017371815 000000000000000 000000000000000 000000000000000 000000000000000 000000000000000 000000000000000 000000000000000                     000000000000000                                                                                                                                                                                                         
23472020B46036083B96758339         AVAB, S.L.                              D46   B 000000139479094  000000000000000 0000000000000000000 000000139479094 000000000000000 000000000000000 000000000000000 000000000000000 000000000000000 000000000000000 000000000000000                     000000000000000                                                                                                                                                                                                         
23472020B46036083B98106289         HERMANOS MARTINEZ ZABALLOS, S.L         D46   B 000000026726791  000000000000000 0000000000000000000 000000026726791 000000000000000 000000000000000 000000000000000 000000000000000 000000000000000 000000000000000 000000000000000                     000000000000000                                                                                                                                                                                                         
23472020B46036083F03013877         COOP.V. CAMPO S. ISIDRO DE MIRRA        D03   B 000000002405329  000000000000000 0000000000000000000 000000002405329 000000000000000 000000000000000 000000000000000 000000000000000 000000000000000 000000000000000 000000000000000                     000000000000000                                                                                                                                                                                                         
23472020B46036083F46025193         COOP. V. SAN ISIDRO LABRADOR            D46   B 000000020189518  000000000000000 0000000000000000000 000000020189518 000000000000000 000000000000000 000000000000000 000000000000000 000000000000000 000000000000000 000000000000000                     000000000000000                                                                                                                                                                                                         
23472020B46036083F46025482         LA UNION CHIVANA, COOP. V.              D46   B 000000013336319  000000000000000 0000000000000000000 000000013336319 000000000000000 000000000000000 000000000000000 000000000000000 000000000000000 000000000000000 000000000000000                     000000000000000                                                                                                                                                                                                         
23472020B46036083F46029112         COOP. V. SAN ROQUE                      D46   B 000000003346152  000000000000000 0000000000000000000 000000003346152 000000000000000 000000000000000 000000000000000 000000000000000 000000000000000 000000000000000 000000000000000                     000000000000000                                                                                                                                                                                                         
23472020B46036083A01004324         VIDRALA, S.A.                           D01   A 000000001223645  000000000000000 0000000000000000000 000000001223645 000000000000000 000000000000000 000000000000000 000000000000000 000000000000000 000000000000000 000000000000000                     000000000000000                                                                                                                                                                                                         
23472020B46036083A08332256         MANUFACTURAS METALICAS CANALS, S.A.     D08   A 000000000986438  000000000000000 0000000000000000000 000000000986438 000000000000000 000000000000000 000000000000000 000000000000000 000000000000000 000000000000000 000000000000000                     000000000000000                                                                                                                                                                                                         
23472020B46036083A11605409         CAPSULAS TORRENT, S.A.                  D11   A 000000007298657  000000000000000 0000000000000000000 000000007298657 000000000000000 000000000000000 000000000000000 000000000000000 000000000000000 000000000000000 000000000000000                     000000000000000                                                                                                                                                                                                         
23472020B46036083A14103709         PLASTICOS GUADALAVIAR, S.A.             D46   A 000000003074914  000000000000000 0000000000000000000 000000003074914 000000000000000 000000000000000 000000000000000 000000000000000 000000000000000 000000000000000 000000000000000                     000000000000000                                                                                                                                                                                                         
23472020B46036083A23319619         LABORATORIO UNAPROLIVA                  D23   A 000000000375488  000000000000000 0000000000000000000 000000000375488 000000000000000 000000000000000 000000000000000 000000000000000 000000000000000 000000000000000 000000000000000                     000000000000000                                                                                                                                                                                                         
23472020B46036083A30007264         AUXILIAR CONSERVERA, S.A.               D30   A 000000004244755  000000000000000 0000000000000000000 000000004244755 000000000000000 000000000000000 000000000000000 000000000000000 000000000000000 000000000000000 000000000000000                     000000000000000                                                                                                                                                                                                         
23472020B46036083A78948007         SMURFIT KAPPA ESPAÑA, S.A.              D28   A 000000002410294  000000000000000 0000000000000000000 000000002410294 000000000000000 000000000000000 000000000000000 000000000000000 000000000000000 000000000000000 000000000000000                     000000000000000                                                                                                                                                                                                         
23472020B46036083A81473852         BUNGE IBERICA, S.A.                     D08   A 000000013573439  000000000000000 0000000000000000000 000000013573439 000000000000000 000000000000000 000000000000000 000000000000000 000000000000000 000000000000000 000000000000000                     000000000000000                                                                                                                                                                                                         
23472020B46036083A81948077         ENDESA ENERGIA, S. A.                   D28   A 000000000473112  000000000000000 0000000000000000000 000000000473112 000000000000000 000000000000000 000000000000000 000000000000000 000000000000000 000000000000000 000000000000000                     000000000000000                                                                                                                                                                                                         
23472020B46036083B14356489         VIDRIERA MONTILLANA, S.L.               D14   A 000000010090809  000000000000000 0000000000000000000 000000010090809 000000000000000 000000000000000 000000000000000 000000000000000 000000000000000 000000000000000 000000000000000                     000000000000000                                                                                                                                                                                                         
23472020B46036083B40616278         ACEITES DEL ESTE, S.L.                  D46   A 000000026514350  000000000000000 0000000000000000000 000000026514350 000000000000000 000000000000000 000000000000000 000000000000000 000000000000000 000000000000000 000000000000000                     000000000000000                                                                                                                                                                                                         
23472020B46036083B45474657         ACEITES GARCIA DE LA CRUZ, S.L.         D45   A 000000051742020  000000000000000 0000000000000000000 000000051742020 000000000000000 000000000000000 000000000000000 000000000000000 000000000000000 000000000000000 000000000000000                     000000000000000                                                                                                                                                                                                         
23472020B46036083B46152856         HIJOS DE ANGEL BALLESTER, S.L.          D46   A 000000000983694  000000000000000 0000000000000000000 000000000983694 000000000000000 000000000000000 000000000000000 000000000000000 000000000000000 000000000000000 000000000000000                     000000000000000                                                                                                                                                                                                         
23472020B46036083B46388898         TRANSVIMON, S.L.                        D46   A 000000002066846  000000000000000 0000000000000000000 000000002066846 000000000000000 000000000000000 000000000000000 000000000000000 000000000000000 000000000000000 000000000000000                     000000000000000                                                                                                                                                                                                         
23472020B46036083B46431045         INDUSTRIAL CARROCERA SETABENSE,S.L.     D46   A 000000000556600  000000000000000 0000000000000000000 000000000556600 000000000000000 000000000000000 000000000000000 000000000000000 000000000000000 000000000000000 000000000000000                     000000000000000                                                                                                                                                                                                         
23472020B46036083B56118300         OLEO MONTILLA, S.L.                     D14   A 000000002939640  000000000000000 0000000000000000000 000000002939640 000000000000000 000000000000000 000000000000000 000000000000000 000000000000000 000000000000000 000000000000000                     000000000000000                                                                                                                                                                                                         
23472020B46036083B75142760         IRUNDIN, S.L.                           D20   A 000000003338148  000000000000000 0000000000000000000 000000003338148 000000000000000 000000000000000 000000000000000 000000000000000 000000000000000 000000000000000 000000000000000                     000000000000000                                                                                                                                                                                                         
23472020B46036083B81920209         OLIVE LINE INTERNACIONAL, S.L.          D28   A 000000001902495  000000000000000 0000000000000000000 000000001902495 000000000000000 000000000000000 000000000000000 000000000000000 000000000000000 000000000000000 000000000000000                     000000000000000                                                                                                                                                                                                         
23472020B46036083B91950253         MIGASA ACEITES, S. L. U.                D41   A 000000021330079  000000000000000 0000000000000000000 000000021330079 000000000000000 000000000000000 000000000000000 000000000000000 000000000000000 000000000000000 000000000000000                     000000000000000                                                                                                                                                                                                         
23472020B46036083B96569629         ALREDES, S.L.                           D46   A 000000000440767  000000000000000 0000000000000000000 000000000440767 000000000000000 000000000000000 000000000000000 000000000000000 000000000000000 000000000000000 000000000000000                     000000000000000                                                                                                                                                                                                         
23472020B46036083B97732317         SPECIAL LABEL P.C. S.L.                 D46   A 000000002279047  000000000000000 0000000000000000000 000000002279047 000000000000000 000000000000000 000000000000000 000000000000000 000000000000000 000000000000000 000000000000000                     000000000000000                                                                                                                                                                                                         
23472020B46036083B97736011         MARTINEZ-MARTI CONSULTORES,S.L.         D46   A 000000000443118  000000000000000 0000000000000000000 000000000443118 000000000000000 000000000000000 000000000000000 000000000000000 000000000000000 000000000000000 000000000000000                     000000000000000                                                                                                                                                                                                         
23472020B46036083B98106289         HERMANOS MARTINEZ ZABALLOS, S.L.        D46   A 000000018117211  000000000000000 0000000000000000000 000000018117211 000000000000000 000000000000000 000000000000000 000000000000000 000000000000000 000000000000000 000000000000000                     000000000000000                                                                                                                                                                                                         
23472020B46036083B98342199         QUEEN OF TRUFFLES, S.L.                 D46   A 000000000745276  000000000000000 0000000000000000000 000000000745276 000000000000000 000000000000000 000000000000000 000000000000000 000000000000000 000000000000000 000000000000000                     000000000000000                                                                                                                                                                                                         
23472020B46036083DE1185131         SMURFIT KAPPA GMBH                      D64   A 000000000719220  000000000000000 0000000000000000000 000000000719220 000000000000000 000000000000000 000000000000000 000000000000000 000000000000000 000000000000000 000000000000000                     000000000000000                                                                                                                                                                                                         
23472020B46036083F03013877         COOP.V. CAMPO S. ISIDRO DE MIRRA        D03   A 000000001817694  000000000000000 0000000000000000000 000000001817694 000000000000000 000000000000000 000000000000000 000000000000000 000000000000000 000000000000000 000000000000000                     000000000000000                                                                                                                                                                                                         
23472020B46036083F46026241         COOP. V. AGR. STMO. CRISTO SALUT        D46   A 000000000996600  000000000000000 0000000000000000000 000000000996600 000000000000000 000000000000000 000000000000000 000000000000000 000000000000000 000000000000000 000000000000000                     000000000000000                                                                                                                                                                                                         
23472020B46036083F46029112         COOP. V. SAN ROQUE                      D46   A 000000002772653  000000000000000 0000000000000000000 000000002772653 000000000000000 000000000000000 000000000000000 000000000000000 000000000000000 000000000000000 000000000000000                     000000000000000                                                                                                                                                                                                         
