1370 B46135372000         0011110201811102018203857906000738632    73   
1370 B46135372000         002Herbelca S.L.                              
1370 B46135372000         003Azagador de la Torre 93                    
1370 B46135372000         00446026 VALENCIA VALENCIA                    
1670 B46135372A08503930   0100000000198740081517200011351142T 81        
1670 B46135372A08503930   011FLUIDRA ESPAÑA, S.A.U.                     
1670 B46135372A08503930   012PINTOR VELAZQUEZ, 10                       
1670 B46135372A08503930   01408213 POLINYA DEL VALLÉS                   
1670 B46135372A08503930   015BARCELONA                 0A08503930       
1770 B46135372A08503930   0011506201808092018242845-N      000000019874 
1670 B46135372B97357339   0100000000538470049511426161369542T 97        
1670 B46135372B97357339   011TORVISCO LEVANTE, S.L.                     
1670 B46135372B97357339   012C/N.10-B (ZONA VENTORRILLO)                
1670 B46135372B97357339   01446510 QUARTELL DE VALL                     
1670 B46135372B97357339   015VALENCIA                  0B97357339       
1770 B46135372B97357339   00115062018080920181/057589      000000053847 
1670 B46135372B97408991   0100000000348243058212227200102212T 56        
1670 B46135372B97408991   011SELEC 2004, S.L.                           
1670 B46135372B97408991   012P.I.LES VIÑES AVDA ESTATUT 18              
1670 B46135372B97408991   01446711 MIRAMAR                              
1670 B46135372B97408991   015VALENCIA                  0B97408991       
1770 B46135372B97408991   001250720180809201818070255      000000034824 
1870 B46135372               000000108545000000030000000023             
