0359F46026282000            001121119         ES8830582287581021004164                              
0659F46026282000A82802695   010ALFA LAVAL IBERIA S.A.                                               
0659F46026282000A82802695   011C/ FRANCISCO GERVAS 4 2                                              
0659F46026282000A82802695   01228108ALCOBENDAS                                                      
0659F46026282000A82802695   013         MADRID                        ESPAÑA                        
0659F46026282000A82802695   01403289774150220200000031211950                                        
0659F46026282000A82802695   0150328977428193001440318102019000003121195H193001440 18/10/2019 3      
0659F46026282000A82802695   044ES6601824572470106053708          BBVAESMMXXX                        
0859F46026282000               0000031211950000000009                                               
