1CtratoCoB96320452FRUTAS INMA S.L.                    0020200316 0001356027RCCR-51EURNN           ES0600610347600018300111                                                                                                                                                                           
220780374N20780374N                               C/TRENCAT, 23                                             CARLET                        VALENCIA                 46240ESES78305822763327267089240                                                                                                  
3               FL-1900206           20200306 0000000135602720200612                                                                                                                                                                                                                                 
400000100001  00000001356027                                                                                                                                                                                                                                                                         
