0359B46833935000            001120422         ES2530582182940686000078                              
0659B4683393500022517188G   010CARLOS MARTÍ CAPILLA                                                 
0659B4683393500022517188G   011C SEGART, 10-26                                                      
0659B4683393500022517188G   01246591ALBALAT DELS TARONGERS                                          
0659B4683393500022517188G   013         VALENCIA                      ESPAÑA                        
0659B4683393500022517188G   01415423346100820220000000336380                                        
0659B4683393500022517188G   01515423346615405/2022102022022000000336380H05/2022 02/02/2022 1        
0659B4683393500022517188G   044ES8720386509786000026944          CAHMESMMXXX                        
0659B4683393500044864787K   010RUTH LEAL GUILLEN                                                    
0659B4683393500044864787K   011AVDA. TRES CRUCES, 67-BAJO                                           
0659B4683393500044864787K   01246014VALENCIA                                                        
0659B4683393500044864787K   013         VALENCIA                      ESPAÑA                        
0659B4683393500044864787K   01426323345100820220000007883750                                        
0659B4683393500044864787K   0152632334546263028/22115032022000000788375H028/22 15/03/2022 1         
0659B4683393500044864787K   044ES8101283642710100006727          BKBKESMMXXX                        
0659B4683393500046132795Q   010CARLOS VICH CORDON                                                   
0659B4683393500046132795Q   011ALMOGAVERS, 52                                                       
0659B4683393500046132795Q   01208018BARCELONA                                                       
0659B4683393500046132795Q   013         BARCELONA                     ESPAÑA                        
0659B4683393500046132795Q   01418923344100820220000000912770                                        
0659B4683393500046132795Q   01518923344189144/2022107042022000000091277H144/2022 07/04/2022 1       
0659B4683393500046132795Q   044ES7000810665380001071314          BSABESBBXXX                        
0659B46833935000A50034313   010ZARAGOZANA DE FORMULARIOS, S.A.                                      
0659B46833935000A50034313   011POL. IND. "EL PORTAZGO" NAVES 51-52                                  
0659B46833935000A50034313   01250011ZARAGOZA                                                        
0659B46833935000A50034313   013         ZARAGOZA                      ESPAÑA                        
0659B46833935000A50034313   01400223347100820220000000085850                                        
0659B46833935000A50034313   01500223347   50002258108022022000000085850H258 08/02/2022 1            
0659B46833935000A50034313   044ES4001822407990019360301          BBVAESMMXXX                        
0659B46833935000A61390712   010LIMSA OLEOCHEMICALS, S.A.                                            
0659B46833935000A61390712   011G.VIA CORTS CATALANES,451 2 2                                        
0659B46833935000A61390712   01208015BARCELONA                                                       
0659B46833935000A61390712   013         BARCELONA                     ESPAÑA                        
0659B46833935000A61390712   01404823344100820220000000523930                                        
0659B46833935000A61390712   0150482334448761000453131012022000000523930H761000453 31/01/2022 1      
0659B46833935000A61390712   044ES6820805043953040069302          CAGLESMMVIG                        
0659B46833935000B08200388   010BASF ESPAÑOLA, S.L.                                                  
0659B46833935000B08200388   011Calle Can Ràbia, 3-5                                                 
0659B46833935000B08200388   01208017BARCELONA                                                       
0659B46833935000B08200388   013         BARCELONA                     ESPAÑA                        
0659B46833935000B08200388   01407823346100820220000001553640                                        
0659B46833935000B08200388   0150782334683534041603109032022000000155364H3534041603 09/03/2022 1     
0659B46833935000B08200388   044ES2101490201560060881001          BNPAESMHXXX                        
0659B46833935000B16807661   010NUUK SPV UNUS, S.L.                                                  
0659B46833935000B16807661   011AVDA. DEL OESTE, 34 PTA. 3                                           
0659B46833935000B16807661   01246001VALENCIA                                                        
0659B46833935000B16807661   013         VALENCIA                      ESPAÑA                        
0659B46833935000B16807661   01426423344100820220000000084700                                        
0659B46833935000B16807661   0152642334462640003/22131032022000000847000H0003/22 31/03/2022 1        
0659B46833935000B16807661   044ES4900810693640002339039          BSABESBBXXX                        
0659B46833935000B30314306   010MARCOPACK, S.L.                                                      
0659B46833935000B30314306   011POL. IND. EL SALADAR I                                               
0659B46833935000B30314306   01230564LORQUI                                                          
0659B46833935000B30314306   013         MURCIA                        ESPAÑA                        
0659B46833935000B30314306   01402523346100820220000000770770                                        
0659B46833935000B30314306   01502523346   30025439110032022000000770770H439 10/03/2022 1            
0659B46833935000B30314306   044ES4621005689600200009502          CAIXESBBXXX                        
0659B46833935000B46660502   010QUIMI ROMAR, S.L.U.                                                  
0659B46833935000B46660502   011CTRA. MONCADA-NAQUERA CV 315-KM 11,                                  
0659B46833935000B46660502   01246119NAQUERA                                                         
0659B46833935000B46660502   013         VALENCIA                      ESPAÑA                        
0659B46833935000B46660502   01426823348100820220000000050820                                        
0659B46833935000B46660502   0152682334846268155289130122021000000508200H155289 30/12/2021 1         
0659B46833935000B46660502   044ES6500303072210005332271          ESPCESMMXXX                        
0659B46833935000B46660502   010QUIMI ROMAR, S.L.U.                                                  
0659B46833935000B46660502   011CTRA. MONCADA-NAQUERA CV 315-KM 11,                                  
0659B46833935000B46660502   01246119NAQUERA                                                         
0659B46833935000B46660502   013         VALENCIA                      ESPAÑA                        
0659B46833935000B46660502   01426823348100820220000005201740                                        
0659B46833935000B46660502   0152682334846268155656110012022000000520174H155656 10/01/2022 1         
0659B46833935000B46660502   044ES6500303072210005332271          ESPCESMMXXX                        
0659B46833935000B50726595   010GRUPO ASIS BIOMEDIA, S.L.                                            
0659B46833935000B50726595   011PZA. ANTONIO BELTRAN MARTINEZ,                                       
0659B46833935000B50726595   01250002ZARAGOZA                                                        
0659B46833935000B50726595   013         ZARAGOZA                      ESPAÑA                        
0659B46833935000B50726595   01400423345100820220000001470150                                        
0659B46833935000B50726595   01500423345F2203/00042103032022000000147015HVF2203/00042 03/03/2022 1   
0659B46833935000B50726595   044ES9000491824422510441361          BSCHESMMXXX                        
0659B46833935000B98145071   010MICOESTAN, S.L.U.                                                    
0659B46833935000B98145071   011AV. REAL MONAST.STA.M POBLET                                         
0659B46833935000B98145071   01246930QUART DE POBLET                                                 
0659B46833935000B98145071   013         VALENCIA                      ESPAÑA                        
0659B46833935000B98145071   01423223344100820220000000088330                                        
0659B46833935000B98145071   015232233441-000149-22101042022000000088330H1-000149-22 01/04/2022 1    
0659B46833935000B98145071   044ES1331590019662735074227          BCOEESNM159                        
0659B46833935000G66286105   010ASSOCIACIÓ DEL CLÚSTER BELLESA DE CATALU                             
0659B46833935000G66286105   011MILÀ I FONTANALS, N 14 1 6                                           
0659B46833935000G66286105   01208012BARCELONA                                                       
0659B46833935000G66286105   013         BARCELONA                     ESPAÑA                        
0659B46833935000G66286105   01419023343100820220000000018000                                        
0659B46833935000G66286105   0151902334381902022138107032022000000180000H2022138 07/03/2022 1        
0659B46833935000G66286105   044ES5800810200250003180626          BSABESBBXXX                        
0859B46833935000               0000050426650000000093                                               
