13492020B46135372HERBELCA S.L.                           T963182216ESTHER CASTELLÓ MANZANO                 3490000202001  00000000000001T000000004000000004109156000000000000000000000000                                                                                                                                                                                                                                                                                                                           
23492020B46135372                                                          FR41562086330    VIRAX, S.A.S.                           A0000000088340                                                                                                                                                                                                                                                                                                                                                                  
23492020B46135372                                                          FR92487897449    SYVECO                                  A0000000151390                                                                                                                                                                                                                                                                                                                                                                  
23492020B46135372                                                          IT00667490981    FONDITAL SPA                            A0000000-74706                                                                                                                                                                                                                                                                                                                                                                  
23492020B46135372                                                          IT01275930236    FONDERIE SIME, S.P.A                    A0000003944132                                                                                                                                                                                                                                                                                                                                                                  
