35762900000084730042020010900357629000000847300420200220205001220200327C267             000504           07072213TORTA GAZPACHO FRESCA 250 JERO1311000000013500000104400001200000000100000000870000000000870001000+357629000
000847300420200220205001520200408289              000574           07072213TORTA GAZPACHO FRESCA 250 JERO1311000000013500000052200000600000000100000000870000000000870001000+357629000000847300420200220205001720200424C308 
            000672           07072213TORTA GAZPACHO FRESCA 250 JERO1311000000013500000069600000800000000100000000870000000000870001000+35762900000084730042020022020500132020021047516978                          07237402S
URTIDO GOLOSINAS HARIBO GRANE0216000000112000000228680000340000000100000006726000000006726001000+35762900000084730042020022020500162020041547517285                          07237402SURTIDO GOLOSINAS HARIBO GRANE021600000
01120000005404L0000803500000100000006726000000006726001000-35762900000084730042020022020802802020040120200401         1000/20/04019361 07247703 RECARGA VODAFONE             03260000010000000000156200000020000001000000780
99000000078099002100+35762900000084730042020022020802812020040120200401         1000/20/04019361 07247708RECARGA MOVISTAR              0826000001000000000015870000002000000100000079339000000079339002100+35762900000084730
042020022020802822020040120200401         1000/20/04019361 07247711 RECARGA ORANGE               1126000001000000000027420000003500000100000078347000000078347002100+35762900000084730042020022020802832020040120200401     
    1000/20/04019361 07247737 RECARGA DIGIMOBIL            3726000001000000000030680000004000000100000076694000000076694002100+35762900000084730042020022020802842020040120200401         1000/20/04019361 07247760RECARGA S
IMYO                 6026000001000000000015690000002000000100000078430000000078430002100+35762900000084730042020022020802852020040220200402         1000/20/04019362 07247703 RECARGA VODAFONE             03260000010000000
00011710000001500000100000078099000000078099002100+35762900000084730042020022020802862020040220200402         1000/20/04019362 07247708RECARGA MOVISTAR              0826000001000000000007930000001000000100000079339000000
079339002100+35762900000084730042020022020802872020040220200402         1000/20/04019362 07247737 RECARGA DIGIMOBIL            3726000001000000000046020000006000000100000076694000000076694002100+3576290000008473004202002
2020802882020040320200403         1000/20/04019610 07247703 RECARGA VODAFONE             0326000001000000000011710000001500000100000078099000000078099002100+35762900000084730042020022020802892020040320200403         1000
/20/04019610 07247708RECARGA MOVISTAR              0826000001000000000003970000000500000100000079339000000079339002100+35762900000084730042020022020802902020040320200403         1000/20/04019610 07247737 RECARGA DIGIMOBI
L            3726000001000000000038350000005000000100000076694000000076694002100+35762900000084730042020022020802912020040420200404         1000/20/04019611 07247703 RECARGA VODAFONE             0326000001000000000019520
000002500000100000078099000000078099002100+35762900000084730042020022020802922020040420200404         1000/20/04019611 07247708RECARGA MOVISTAR              082600000100000000003570000000450000010000007933900000007933900
2100+35762900000084730042020022020802932020040420200404         1000/20/04019611 07247716RECARGA YOIGO                 1626000001000000000007770000001000000100000077686000000077686002100+357629000000847300420200220208029
42020040420200404         1000/20/04019611 07247724 RECARGA LYCAMOBILE           2426000001000000000003930000000500000100000078515000000078515002100+35762900000084730042020022020802952020040420200404         1000/20/0401
9611 07247729RECARGA LEBARA MOVIL          2926000001000000000007660000001000000100000076612000000076612002100+35762900000084730042020022020802962020040420200404         1000/20/04019611 07247737 RECARGA DIGIMOBIL       
     3726000001000000000061360000008000000100000076694000000076694002100+35762900000084730042020022020802972020040620200406         1000/20/04020434 07247708RECARGA MOVISTAR              082600000100000000001983000000250
0000100000079339000000079339002100+35762900000084730042020022020802982020040620200406         1000/20/04020434 07247711 RECARGA ORANGE               1126000001000000000007830000001000000100000078347000000078347002100+357
62900000084730042020022020802992020040620200406         1000/20/04020434 07247724 RECARGA LYCAMOBILE           2426000001000000000023550000003000000100000078515000000078515002100+35762900000084730042020022020803002020040
620200406         1000/20/04020434 07247737 RECARGA DIGIMOBIL            3726000001000000000076690000010000000100000076694000000076694002100+35762900000084730042020022020803012020040620200406         1000/20/04020434 072
47760RECARGA SIMYO                 6026000001000000000023530000003000000100000078430000000078430002100+35762900000084730042020022020803022020040720200407         1000/20/04020435 07247708RECARGA MOVISTAR              082
6000001000000000011900000001500000100000079339000000079339002100+35762900000084730042020022020803032020040720200407         1000/20/04020435 07247737 RECARGA DIGIMOBIL            37260000010000000000076700000010000001000
00076694000000076694002100+35762900000084730042020022020803042020040820200408         1000/20/04020685 07247724 RECARGA LYCAMOBILE           2426000001000000000019630000002500000100000078515000000078515002100+35762900000
084730042020022020803052020040820200408         1000/20/04020685 07247737 RECARGA DIGIMOBIL            3726000001000000000042180000005500000100000076694000000076694002100+3576290000008473004202002202080306202004082020040
8         1000/20/04020685 07247760RECARGA SIMYO                 6026000001000000000007840000001000000100000078430000000078430002100+35762900000084730042020022020803072020040920200409         1000/20/04020686 07247708REC
ARGA MOVISTAR              0826000001000000000003970000000500000100000079339000000079339002100+35762900000084730042020022020803082020040920200409         1000/20/04020686 07247711 RECARGA ORANGE               11260000010
00000000007830000001000000100000078347000000078347002100+35762900000084730042020022020803092020040920200409         1000/20/04020686 07247716RECARGA YOIGO                 1626000001000000000015540000002000000100000077686
000000077686002100+35762900000084730042020022020803102020040920200409         1000/20/04020686 07247724 RECARGA LYCAMOBILE           2426000001000000000003930000000500000100000078515000000078515002100+3576290000008473004
2020022020803112020040920200409         1000/20/04020686 07247737 RECARGA DIGIMOBIL            3726000001000000000030680000004000000100000076694000000076694002100+35762900000084730042020022020803122020040920200409       
  1000/20/04020686 07247760RECARGA SIMYO                 6026000001000000000015690000002000000100000078430000000078430002100+35762900000084730042020022020803132020041120200411         1000/20/04020688 07247703 RECARGA VO
DAFONE             0326000001000000000003900000000500000100000078099000000078099002100+35762900000084730042020022020803142020041120200411         1000/20/04020688 07247708RECARGA MOVISTAR              0826000001000000000
015870000002000000100000079339000000079339002100+35762900000084730042020022020803152020041120200411         1000/20/04020688 07247724 RECARGA LYCAMOBILE           242600000100000000000393000000050000010000007851500000007
8515002100+35762900000084730042020022020803162020041120200411         1000/20/04020688 07247737 RECARGA DIGIMOBIL            3726000001000000000030680000004000000100000076694000000076694002100+357629000000847300420200220
20803172020041420200414         1000/20/04021527 07247703 RECARGA VODAFONE             0326000001000000000007810000001000000100000078099000000078099002100+35762900000084730042020022020803182020041420200414         1000/2
0/04021527 07247708RECARGA MOVISTAR              0826000001000000000007930000001000000100000079339000000079339002100+35762900000084730042020022020803192020041420200414         1000/20/04021527 07247724 RECARGA LYCAMOBILE
           2426000001000000000023550000003000000100000078515000000078515002100+35762900000084730042020022020803202020041420200414         1000/20/04021527 07247737 RECARGA DIGIMOBIL            372600000100000000002301000
0003000000100000076694000000076694002100+35762900000084730042020022020803212020041520200415         1000/20/04021528 07247708RECARGA MOVISTAR              08260000010000000000158700000020000001000000793390000000793390021
00+35762900000084730042020022020803222020041520200415         1000/20/04021528 07247737 RECARGA DIGIMOBIL            3726000001000000000015340000002000000100000076694000000076694002100+35762900000084730042020022020803232
020041520200415         1000/20/04021528 07247760RECARGA SIMYO                 6026000001000000000027450000003500000100000078430000000078430002100+35762900000084730042020022020803242020041620200416         1000/20/040215
29 07247711 RECARGA ORANGE               1126000001000000000015670000002000000100000078347000000078347002100+35762900000084730042020022020803252020041620200416         1000/20/04021529 07247737 RECARGA DIGIMOBIL         
   3726000001000000000034510000004500000100000076694000000076694002100+35762900000084730042020022020803262020041620200416         1000/20/04021529 07247760RECARGA SIMYO                 60260000010000000000039200000005000
00100000078430000000078430002100+35762900000084730042020022020803272020041720200417         1000/20/04021780 07247708RECARGA MOVISTAR              0826000001000000000003970000000500000100000079339000000079339002100+35762
900000084730042020022020803282020041720200417         1000/20/04021780 07247724 RECARGA LYCAMOBILE           2426000001000000000003930000000500000100000078515000000078515002100+3576290000008473004202002202080329202004172
0200417         1000/20/04021780 07247737 RECARGA DIGIMOBIL            3726000001000000000007670000001000000100000076694000000076694002100+35762900000084730042020022020803302020041820200418         1000/20/04021781 07247
703 RECARGA VODAFONE             0326000001000000000015620000002000000100000078099000000078099002100+35762900000084730042020022020803312020041820200418         1000/20/04021781 07247716RECARGA YOIGO                 16260
00001000000000007770000001000000100000077686000000077686002100+35762900000084730042020022020803322020041820200418         1000/20/04021781 07247724 RECARGA LYCAMOBILE           2426000001000000000007850000001000000100000
078515000000078515002100+35762900000084730042020022020803332020041820200418         1000/20/04021781 07247737 RECARGA DIGIMOBIL            3726000001000000000007670000001000000100000076694000000076694002100+3576290000008
4730042020022020803342020042020200420         1000/20/04022639 07247737 RECARGA DIGIMOBIL            3726000001000000000046020000006000000100000076694000000076694002100+35762900000084730042020022020803352020042020200420 
        1000/20/04022639 07247760RECARGA SIMYO                 6026000001000000000015690000002000000100000078430000000078430002100+35762900000084730042020022020803362020042120200421         1000/20/04022641 07247708RECAR
GA MOVISTAR              0826000001000000000031740000004000000100000079339000000079339002100+35762900000084730042020022020803372020042120200421         1000/20/04022641 07247711 RECARGA ORANGE               1126000001000
000000023500000003000000100000078347000000078347002100+35762900000084730042020022020803382020042120200421         1000/20/04022641 07247729RECARGA LEBARA MOVIL          292600000100000000000766000000100000010000007661200
0000076612002100+35762900000084730042020022020803392020042120200421         1000/20/04022641 07247737 RECARGA DIGIMOBIL            3726000001000000000030680000004000000100000076694000000076694002100+357629000000847300420
20022020803402020042120200421         1000/20/04022641 07247760RECARGA SIMYO                 6026000001000000000003920000000500000100000078430000000078430002100+35762900000084730042020022020803412020042220200422         
1000/20/04022642 07247703 RECARGA VODAFONE             0326000001000000000007810000001000000100000078099000000078099002100+35762900000084730042020022020803422020042220200422         1000/20/04022642 07247737 RECARGA DIGI
MOBIL            3726000001000000000003830000000500000100000076694000000076694002100+35762900000084730042020022020803432020042320200423         1000/20/04022643 07247711 RECARGA ORANGE               112600000100000000003
1340000004000000100000078347000000078347002100+35762900000084730042020022020803442020042320200423         1000/20/04022643 07247737 RECARGA DIGIMOBIL            37260000010000000000076700000010000001000000766940000000766
94002100+35762900000084730042020022020803452020042420200424         1000/20/04022890 07247703 RECARGA VODAFONE             0326000001000000000035140000004500000100000078099000000078099002100+35762900000084730042020022020
803462020042420200424         1000/20/04022890 07247737 RECARGA DIGIMOBIL            3726000001000000000003830000000500000100000076694000000076694002100+35762900000084730042020022020803472020042520200425         1000/20/
04022891 07247703 RECARGA VODAFONE             0326000001000000000007810000001000000100000078099000000078099002100+35762900000084730042020022020803482020042520200425         1000/20/04022891 07247708RECARGA MOVISTAR     
         0826000001000000000007930000001000000100000079339000000079339002100+35762900000084730042020022020803492020042520200425         1000/20/04022891 07247732RECARGA  LLAMAYA MOVIL        32260000010000000000038200000
00500000100000076364000000076364002100+35762900000084730042020022020803502020042520200425         1000/20/04022891 07247737 RECARGA DIGIMOBIL            3726000001000000000030680000004000000100000076694000000076694002100
+35762900000084730042020022020803512020042720200427         1000/20/04023743 07247703 RECARGA VODAFONE             0326000001000000000007810000001000000100000078099000000078099002100+3576290000008473004202002202080352202
0042720200427         1000/20/04023743 07247708RECARGA MOVISTAR              0826000001000000000015870000002000000100000079339000000079339002100+35762900000084730042020022020803532020042720200427         1000/20/04023743
 07247729RECARGA LEBARA MOVIL          2926000001000000000007660000001000000100000076612000000076612002100+35762900000084730042020022020803542020042720200427         1000/20/04023743 07247737 RECARGA DIGIMOBIL           
 3726000001000000000015340000002000000100000076694000000076694002100+35762900000084730042020022020803552020042820200428         1000/20/04023744 07247703 RECARGA VODAFONE             0326000001000000000003900000000500000
100000078099000000078099002100+35762900000084730042020022020803562020042820200428         1000/20/04023744 07247737 RECARGA DIGIMOBIL            3726000001000000000076690000010000000100000076694000000076694002100+3576290
0000084730042020022020803572020042920200429         1000/20/04023745 07247711 RECARGA ORANGE               1126000001000000000007830000001000000100000078347000000078347002100+357629000000847300420200220208035820200429202
00429         1000/20/04023745 07247716RECARGA YOIGO                 1626000001000000000015540000002000000100000077686000000077686002100+35762900000084730042020022020803592020042920200429         1000/20/04023745 0724772
4 RECARGA LYCAMOBILE           2426000001000000000003930000000500000100000078515000000078515002100+35762900000084730042020022020803602020042920200429         1000/20/04023745 07247737 RECARGA DIGIMOBIL            3726000
001000000000007670000001000000100000076694000000076694002100+35762900000084730042020022020803612020043020200430         1000/20/04023967 07247703 RECARGA VODAFONE             032600000100000000000781000000100000010000007
8099000000078099002100+35762900000084730042020022020803622020043020200430         1000/20/04023967 07247708RECARGA MOVISTAR              0826000001000000000003970000000500000100000079339000000079339002100+357629000000847
30042020022020803632020043020200430         1000/20/04023967 07247724 RECARGA LYCAMOBILE           2426000001000000000015700000002000000100000078515000000078515002100+35762900000084730042020022020803642020043020200430   
      1000/20/04023967 07247737 RECARGA DIGIMOBIL            3726000001000000000030680000004000000100000076694000000076694002100+3576290000008473004202004021000000157840000003123400001482590000000000000000958100000091060
