0156B96470190             001291116      4210018630200004901EUR         
0156B96470190             002Ariadna, S.L.                              
0156B96470190             003                                           
0156B96470190             004                                           
0656B96470190 B58728585   010000000125000                  19    NCEUR  
0656B96470190 B58728585   011TECH DATA ESPAÑA, S.A.U.                   
0656B96470190 B58728585   012ACER, 30-32                                
0656B96470190 B58728585   01408038                                      
0656B96470190 B58728585   016T01081623223          100816               
0856B96470190                000000125000000000010000000010             
