0359B96470190000            001220222         ES3001280600300100119171                              
0659B96470190000A48003834   010EBARA PUMPS IBERIA, S.A.                                             
0659B96470190000A48003834   011P.I LA ESTACION C/CORMORANES 6-8                                     
0659B96470190000A48003834   01228320PINTO                                                           
0659B96470190000A48003834   01328320    MADRID                        ES                            
0659B96470190000A48003834   01400000012120320220000000430160                                        
0659B96470190000A48003834   01500000012  310611382131122021000000043016HPAGO FACTURA   3106113821   
0659B96470190000A08653065   010ESTOLI,S.A.                                                          
0659B96470190000A08653065   011A.PAISOS CATALANS,18 P.I.CASAN                                       
0659B96470190000A08653065   01208730MONJOS DEL PENEDES                                              
0659B96470190000A08653065   01308730    BARCELONA                     ES                            
0659B96470190000A08653065   01400000023060420220000000134670                                        
0659B96470190000A08653065   01500000023      21647203122021000000013467HPAGO FACTURA   216472       
0659B96470190000A28804136   010BOMBAS GRUNDFOS ESPA헤,S.A.                                          
0659B96470190000A28804136   011CAMINO DE LA FUENTECILLA,S/N.                                        
0659B96470190000A28804136   01228110ALGETE                                                          
0659B96470190000A28804136   01328110    MADRID                        ES                            
0659B96470190000A28804136   01400000034260320220000001877240                                        
0659B96470190000A28804136   01500000034  110053187630122021000000187724HPAGO FACTURA   1100531876   
0659B96470190000A58868035   010POTERMIC,S.A.                                                        
0659B96470190000A58868035   011APARTADO DE CORREOS 72                                               
0659B96470190000A58868035   01208620SAN VICENC DELS HORTS                                           
0659B96470190000A58868035   01308620    BARCELONA                     ES                            
0659B96470190000A58868035   01400000045120320220000000315340                                        
0659B96470190000A58868035   01500000045    F211088030122021000000031534HPAGO FACTURA   F2110880     
0659B96470190000B14952881   010DUPLACH, S.L.                                                        
0659B96470190000B14952881   011ANTIGUA CARRETERA DE CARDE헤 KM8                                     
0659B96470190000B14952881   01214640VILLA DEL RIO                                                   
0659B96470190000B14952881   01314640    CORDOBA                       ES                            
0659B96470190000B14952881   01400000056050320220000000703300                                        
0659B96470190000B14952881   01500000056   21/03210701122021000000070330HPAGO FACTURA   21/032107    
0659B96470190000B14952881   010DUPLACH, S.L.                                                        
0659B96470190000B14952881   011ANTIGUA CARRETERA DE CARDE헤 KM8                                     
0659B96470190000B14952881   01214640VILLA DEL RIO                                                   
0659B96470190000B14952881   01314640    CORDOBA                       ES                            
0659B96470190000B14952881   01400000060090320220000000600960                                        
0659B96470190000B14952881   01500000060   21/03244807122021000000060096HPAGO FACTURA   21/032448    
0659B96470190000B14952881   010DUPLACH, S.L.                                                        
0659B96470190000B14952881   011ANTIGUA CARRETERA DE CARDE헤 KM8                                     
0659B96470190000B14952881   01214640VILLA DEL RIO                                                   
0659B96470190000B14952881   01314640    CORDOBA                       ES                            
0659B96470190000B14952881   01400000071120320220000000096580                                        
0659B96470190000B14952881   01500000071   21/03273010122021000000009658HPAGO FACTURA   21/032730    
0659B96470190000B14952881   010DUPLACH, S.L.                                                        
0659B96470190000B14952881   011ANTIGUA CARRETERA DE CARDE헤 KM8                                     
0659B96470190000B14952881   01214640VILLA DEL RIO                                                   
0659B96470190000B14952881   01314640    CORDOBA                       ES                            
0659B96470190000B14952881   01400000082120320220000000181430                                        
0659B96470190000B14952881   01500000082   21/03286813122021000000018143HPAGO FACTURA   21/032868    
0659B96470190000B14952881   010DUPLACH, S.L.                                                        
0659B96470190000B14952881   011ANTIGUA CARRETERA DE CARDE헤 KM8                                     
0659B96470190000B14952881   01214640VILLA DEL RIO                                                   
0659B96470190000B14952881   01314640    CORDOBA                       ES                            
0659B96470190000B14952881   01400000093190320220000000122200                                        
0659B96470190000B14952881   01500000093   21/03302314122021000000012220HPAGO FACTURA   21/033023    
0659B96470190000B14952881   010DUPLACH, S.L.                                                        
0659B96470190000B14952881   011ANTIGUA CARRETERA DE CARDE헤 KM8                                     
0659B96470190000B14952881   01214640VILLA DEL RIO                                                   
0659B96470190000B14952881   01314640    CORDOBA                       ES                            
0659B96470190000B14952881   01400000104190320220000000124690                                        
0659B96470190000B14952881   01500000104   21/03317915122021000000012469HPAGO FACTURA   21/033179    
0659B96470190000B14952881   010DUPLACH, S.L.                                                        
0659B96470190000B14952881   011ANTIGUA CARRETERA DE CARDE헤 KM8                                     
0659B96470190000B14952881   01214640VILLA DEL RIO                                                   
0659B96470190000B14952881   01314640    CORDOBA                       ES                            
0659B96470190000B14952881   01400000115190320220000000264130                                        
0659B96470190000B14952881   01500000115   21/03325515122021000000026413HPAGO FACTURA   21/033255    
0659B96470190000B14952881   010DUPLACH, S.L.                                                        
0659B96470190000B14952881   011ANTIGUA CARRETERA DE CARDE헤 KM8                                     
0659B96470190000B14952881   01214640VILLA DEL RIO                                                   
0659B96470190000B14952881   01314640    CORDOBA                       ES                            
0659B96470190000B14952881   01400000126190320220000000153550                                        
0659B96470190000B14952881   01500000126   21/03333116122021000000015355HPAGO FACTURA   21/033331    
0659B96470190000B42924597   010ROCA TILES SPAIN, S.L.                                               
0659B96470190000B42924597   011POL IND BELCAIRE C 34                                                
0659B96470190000B42924597   01212600VALL DE UXO                                                     
0659B96470190000B42924597   01312600    CASTELLON                     ES                            
0659B96470190000B42924597   01400000130120320220000000409830                                        
0659B96470190000B42924597   01500000130  340001077530112021000000040983HPAGO FACTURA   3400010775   
0659B96470190000B03277654   010J.P.M. DAL-ROS, S.L.                                                 
0659B96470190000B03277654   011P.I.LA PEDRERA C/LUMIERE, S/N                                        
0659B96470190000B03277654   01203720BENISA                                                          
0659B96470190000B03277654   01303720    ALACANT                       ES                            
0659B96470190000B03277654   01400000141120320220000000420000                                        
0659B96470190000B03277654   01500000141    0001531831122021000000042000HPAGO FACTURA   00015318     
0659B96470190000A78578705   010POLYSAN, S.A.                                                        
0659B96470190000A78578705   011C/ EUGENIO CAXES, 1                                                  
0659B96470190000A78578705   01228026MADRID                                                          
0659B96470190000A78578705   01328026    MADRID                        ES                            
0659B96470190000A78578705   01400000152260320220000004227990                                        
0659B96470190000A78578705   01500000152    0005559331122021000000422799HPAGO FACTURA   00055593     
0659B96470190000B82203704   010ROBERT BOSCH ESPA헤, S.L.U.                                          
0659B96470190000B82203704   011C/HERMANOS GARCIA NOBLEJAS, 19                                       
0659B96470190000B82203704   01228037MADRID                                                          
0659B96470190000B82203704   01328037    MADRID                        ES                            
0659B96470190000B82203704   01400000163230320220000000408310                                        
0659B96470190000B82203704   01500000163  257779831530112021000000040831HPAGO FACTURA   2577798315   
0659B96470190000B46182002   010REBOCA, S.L.                                                         
0659B96470190000B46182002   011C/Clariano, 6 APTO DE CORREOS 92                                     
0659B96470190000B46182002   01246850OLLERIA                                                         
0659B96470190000B46182002   01346850    VALENCIA                      ES                            
0659B96470190000B46182002   01400000174120320220000000595080                                        
0659B96470190000B46182002   01500000174     230429230112021000000059508HPAGO FACTURA   2304292      
0659B96470190000B46182002   010REBOCA, S.L.                                                         
0659B96470190000B46182002   011C/Clariano, 6 APTO DE CORREOS 92                                     
0659B96470190000B46182002   01246850OLLERIA                                                         
0659B96470190000B46182002   01346850    VALENCIA                      ES                            
0659B96470190000B46182002   01400000185120320220000000254900                                        
0659B96470190000B46182002   01500000185     230433903122021000000025490HPAGO FACTURA   2304339      
0659B96470190000A08221582   010INDUSTRIAS RAMON SOLER,S.A.                                          
0659B96470190000A08221582   011POL IND FONTSANTA VALLESOIR 26                                       
0659B96470190000A08221582   01208970SANT JOAN DESPI                                                 
0659B96470190000A08221582   01308970    BARCELONA                     ES                            
0659B96470190000A08221582   01400000196160420220000000147330                                        
0659B96470190000A08221582   01500000196  202103951814122021000000014733HPAGO FACTURA   2021039518   
0659B96470190000A79274254   010GROUPE ATLANTIC ESPA헤-SOL.CONF.TERM S.A                             
0659B96470190000A79274254   011C/ANTONIO MACHADO 65 EDIF SOCRATES                                   
0659B96470190000A79274254   01208840VILADECANS                                                      
0659B96470190000A79274254   01308840    BARCELONA                     ES                            
0659B96470190000A79274254   01400000200120320220000002263030                                        
0659B96470190000A79274254   01500000200       6677415122021000000226303HPAGO FACTURA   66774        
0659B96470190000A79274254   010GROUPE ATLANTIC ESPA헤-SOL.CONF.TERM S.A                             
0659B96470190000A79274254   011C/ANTONIO MACHADO 65 EDIF SOCRATES                                   
0659B96470190000A79274254   01208840VILADECANS                                                      
0659B96470190000A79274254   01308840    BARCELONA                     ES                            
0659B96470190000A79274254   01400000211120320220000000061330                                        
0659B96470190000A79274254   01500000211       6693716122021000000006133HPAGO FACTURA   66937        
0659B96470190000A79274254   010GROUPE ATLANTIC ESPA헤-SOL.CONF.TERM S.A                             
0659B96470190000A79274254   011C/ANTONIO MACHADO 65 EDIF SOCRATES                                   
0659B96470190000A79274254   01208840VILADECANS                                                      
0659B96470190000A79274254   01308840    BARCELONA                     ES                            
0659B96470190000A79274254   01400000222120320220000002825540                                        
0659B96470190000A79274254   01500000222       6693816122021000000282554HPAGO FACTURA   66938        
0859B96470190000               0000016617590000000134                                               
