0359B96320452000            001211022         ES1200750232190620001677                              
0659B9632045200048445041A   010MOTELLON CARBONELL, RUBEN                                            
0659B9632045200048445041A   011C/ESCULTOR JOSE PLANES, 21B                                          
0659B9632045200048445041A   01230562CEUTI                                                           
0659B9632045200048445041A   01330562    MURCIA                        ES                            
0659B9632045200048445041A   01400000012200820210000006510650                                        
0659B9632045200048445041A   01500000012   L-210005621072021000000651065HPAGO FACTURA   L-2100056    
0659B963204520000659B9632045200048445041A   010PARDO GIL, JOSE                                      
0659B963204520000659B9632045200048445041A   011                                                     
0659B963204520000659B9632045200048445041A   012                                                     
0659B963204520000659B9632045200048445041A   013                                                     
0659B963204520000659B9632045200048445041A   01400000023300520210000000090750                        
0659B963204520000659B9632045200048445041A   01500000023       1 10530042021000000009075HPAGO FACTURA
0859B96320452000               0000006601400000000014                                               
