0359B46135372000            001200718         ES2800810693600002093621                              
0659B46135372000A46135273   010BATERIAS CENTENO, S.L.                                               
0659B46135372000A46135273   011POL ALZICOOP C/ PARTIDA MATERN                                       
0659B46135372000A46135273   01246600ALZIRA                                                          
0659B46135372000A46135273   01346600    VALENCIA                      ES                            
0659B46135372000A46135273   01400000012140520180000000123600                                        
0659B46135372000A46135273   01500000012      00007615032018000000012360HPAGO FACTURA   000076       
0659B46135372000B62734983   010CATA ELECTRODOMESTICOS, S.L.                                         
0659B46135372000B62734983   011C/TER, 2                                                             
0659B46135372000B62734983   01208570TORELLO                                                         
0659B46135372000B62734983   01308570    BARCELONA                     ES                            
0659B46135372000B62734983   01400000023290620180000000128200                                        
0659B46135372000B62734983   01500000023     001930130042018000000012820HPAGO FACTURA   0019301      
0859B46135372000               0000000251800000000014                                               
