0359B46135372000            001050918         ES3001280600300100119171                              
0659B46135372000A08653065   010ESTOLI,S.A.                                                          
0659B46135372000A08653065   011A.PAISOS CATALANS,18 P.I.CASAN                                       
0659B46135372000A08653065   01208730MONJOS DEL PENEDES                                              
0659B46135372000A08653065   01308730    BARCELONA                     ES                            
0659B46135372000A08653065   01400000012201020180000000123920                                        
0659B46135372000A08653065   01500000012      19063015062018000000012392HPAGO FACTURA   190630       
0659B46135372000A08653065   010ESTOLI,S.A.                                                          
0659B46135372000A08653065   011A.PAISOS CATALANS,18 P.I.CASAN                                       
0659B46135372000A08653065   01208730MONJOS DEL PENEDES                                              
0659B46135372000A08653065   01308730    BARCELONA                     ES                            
0659B46135372000A08653065   01400000023201020180000000239180                                        
0659B46135372000A08653065   01500000023      19075221062018000000023918HPAGO FACTURA   190752       
0659B46135372000B46162376   010SANCHIS MUEBLES DE BAÑO, S.L.                                        
0659B46135372000B46162376   011AV.DE LA LLIBERTAT, 6                                                
0659B46135372000B46162376   01246600ALZIRA                                                          
0659B46135372000B46162376   01346600    VALENCIA                      ES                            
0659B46135372000B46162376   01400000034201020180000000807540                                        
0659B46135372000B46162376   01500000034   2018/154018052018000000080754HPAGO FACTURA   2018/1540    
0859B46135372000               0000001170640000000020                                               
