0359B46135372000            001080618         ES3001280600300100119171                              
0659B46135372000A08484321   010HIDRAULICA ALSINA, S.A.                                              
0659B46135372000A08484321   011DR.FERRAN, 38                                                        
0659B46135372000A08484321   01208120LA LLAGOSTA                                                     
0659B46135372000A08484321   01308120    BARCELONA                     ES                            
0659B46135372000A08484321   01400000012140520180000000107810                                        
0659B46135372000A08484321   01500000012   1/100093715032018000000010781HPAGO FACTURA   1/1000937    
0659B46135372000B60326279   010TRATAMIENTOS DEL AGUA VDF, S.L.                                      
0659B46135372000B60326279   011C/AIGUAFREDA, 8 P.I.L´AMETLLA                                        
0659B46135372000B60326279   01208480L´AMETLLA DEL VALLES                                            
0659B46135372000B60326279   01308480    BARCELONA                     ES                            
0659B46135372000B60326279   01400000023150520180000002223990                                        
0659B46135372000B60326279   01500000023   18200388205032018000000222399HPAGO FACTURA   182003882    
0859B46135372000               0000002331800000000014                                               
