0156B20899563             001030818      00040049479476201827631EUR         
0156B20899563             002EULER                                      
0156B20899563             003                                           
0156B20899563             004                                           
0656B20899563 B63570477   01000000006255101825426020150592319  47NCEUR  
0656B20899563 B63570477   011LIKITECH SURESTE, S.L.U.                   
0656B20899563 B63570477   012LAGUNAS DE RUIDERA , 11 P.I.BA             
0656B20899563 B63570477   01430591BALSICAS                              
0656B20899563 B63570477   016T29031820180226       300818               
0656B20899563 B63570477   01000000018059901825426020150592319  47NCEUR  
0656B20899563 B63570477   011LIKITECH SURESTE, S.L.U.                   
0656B20899563 B63570477   012LAGUNAS DE RUIDERA , 11 P.I.BA             
0656B20899563 B63570477   01430591BALSICAS                              
0656B20899563 B63570477   016T29031820180227       300818               
0656B20899563 B63570477   01000000122268901825426020150592319  47NCEUR  
0656B20899563 B63570477   011LIKITECH SURESTE, S.L.U.                   
0656B20899563 B63570477   012LAGUNAS DE RUIDERA , 11 P.I.BA             
0656B20899563 B63570477   01430591BALSICAS                              
0656B20899563 B63570477   016T29031820180228       300818               
0656B20899563 B63570477   01000000012939101825426020150592319  47NCEUR  
0656B20899563 B63570477   011LIKITECH SURESTE, S.L.U.                   
0656B20899563 B63570477   012LAGUNAS DE RUIDERA , 11 P.I.BA             
0656B20899563 B63570477   01430591BALSICAS                              
0656B20899563 B63570477   016T30041820180317       300818               
0656B20899563 B63570477   01000000029916801825426020150592319  47NCEUR  
0656B20899563 B63570477   011LIKITECH SURESTE, S.L.U.                   
0656B20899563 B63570477   012LAGUNAS DE RUIDERA , 11 P.I.BA             
0656B20899563 B63570477   01430591BALSICAS                              
0656B20899563 B63570477   016T18051820180403       300818               
0656B20899563 B63570477   01000000179677401825426020150592319  47NCEUR  
0656B20899563 B63570477   011LIKITECH SURESTE, S.L.U.                   
0656B20899563 B63570477   012LAGUNAS DE RUIDERA , 11 P.I.BA             
0656B20899563 B63570477   01430591BALSICAS                              
0656B20899563 B63570477   016T18051820180406       300818               
0656B20899563 B63570477   01000000045528701825426020150592319  47NCEUR  
0656B20899563 B63570477   011LIKITECH SURESTE, S.L.U.                   
0656B20899563 B63570477   012LAGUNAS DE RUIDERA , 11 P.I.BA             
0656B20899563 B63570477   01430591BALSICAS                              
0656B20899563 B63570477   016T25051820180425       300818               
0656B20899563 B63570477   01000000013401501825426020150592319  47NCEUR  
0656B20899563 B63570477   011LIKITECH SURESTE, S.L.U.                   
0656B20899563 B63570477   012LAGUNAS DE RUIDERA , 11 P.I.BA             
0656B20899563 B63570477   01430591BALSICAS                              
0656B20899563 B63570477   016T31051820180451       300818               
0656B20899563 B63570477   01000000073920701825426020150592319  47NCEUR  
0656B20899563 B63570477   011LIKITECH SURESTE, S.L.U.                   
0656B20899563 B63570477   012LAGUNAS DE RUIDERA , 11 P.I.BA             
0656B20899563 B63570477   01430591BALSICAS                              
0656B20899563 B63570477   016T31051820180456       300818               
0856B20899563                000005019681000000090000000050             
