13492015B96470190CONSOLIDADO                             T963805579RAFAEL GARCIA REDONDO                   3490000000000  00000000000000A000000002000000000250000000000000000000000000000                                                                                                                                                                                                                                                                                                                           
23492015B96470190                                                          F46027504        CAJA RURAL DE TURIS                     E0000000150000                                                                                                                                                                                                                                                                                                                                                                  
23492015B96470190                                                          B46036422        CONSTRUCCIONES RUZAFA, S.L              A0000000100000                                                                                                                                                                                                                                                                                                                                                                  
