13472015B96470190ARIADNA SOFTWARE, S.L.                  T963805579RAFAEL GARCIA REDONDO                   3470000000000  0000000000000000000007 000000010799175000000000000000000000000                                                                                                                                                                                                                                                                                                                            
23472015B96470190A28010791         IBM ESPAÑA, S.A.                        D28   B 000000000387200  000000000000000 0000000000000000000 000000000000000 000000000000000 000000000387200 000000000000000 000000000000000 000000000000000 000000000000000 000000000000000                                                                                                                                                                                                                                             
23472015B96470190B03036340         PEREZ PASCUAL, S.L.                     D03   B 000000000104000  000000000000000 0000000000000000000 000000000000000 000000000000000 000000000104000 000000000000000 000000000000000 000000000000000 000000000000000 000000000000000                                                                                                                                                                                                                                             
23472015B96470190F46026696         VIT. DE LA POBLA DEL DUC 2              D46   B 000000004044346  000000000000000 0000000000000000000 000000001475546 000000000000000 000000002568800 000000000000000 000000000000000 000000000000000 000000000000000 000000000000000                                                                                                                                                                                                                                             
23472015B96470190F46027504         CAJA RURAL DE TURIS                     D46   B 000000002334125  000000000000000 0000000000000000000 000000000000000 000000000000000 000000002334125 000000000000000 000000000000000 000000000000000 000000000000000 000000000000000                                                                                                                                                                                                                                             
23472015B96470190F46038881         AGRICOLA DE CATADAU, S.C.V.L.           D46   B 000000000278400  000000000000000 0000000000000000000 000000000000000 000000000000000 000000000278400 000000000000000 000000000000000 000000000000000 000000000000000 000000000000000                                                                                                                                                                                                                                             
23472015B96470190B46036422         CONSTRUCCIONES RUZAFA, S.L              D46   A 000000002552804  000000000000000 0000000000000000000 000000000000000 000000000000000 000000000977804 000000000000000 000000001575000 000000000000000 000000000000000 000000000000000                                                                                                                                                                                                                                             
23472015B96470190B73347494         PC COMPONENTES Y MULTIMEDIA, S          D30   A 000000001098300  000000000000000 0000000000000000000 000000000000000 000000000000000 000000000820000 000000000000000 000000000278300 000000000000000 000000000000000 000000000000000                                                                                                                                                                                                                                             
